:040000006F00C06568
:1000040000000000000000006F0080086F00001F67
:1000140000000000000000000000000000000000DC
:1000240000000000000000000000000000000000CC
:100034006F004006000000006F00E00500000000B3
:100044006F0080056F0060056F0040056F0020059C
:100054006F0000056F00E0046F0040060000000020
:100064006F0060046F0040046F0020046F00000400
:100074006F00E0036F00C003000000006F00600326
:100084006F0040036F0020036F0000036F00E00265
:1000940001A001A001A001A001A001A001A001A054
:1000A40001A001A001A001A001A001A001A001A044
:1000B40001A001A001A001A001A001A097D0FFDF31
:1000C400E780E00E73002030B717004093067005F8
:1000D4002380D704130780FA2380E70403C6B704F8
:1000E4001376F60DA385C70423800704137605024F
:1000F4002DC603C6A700118A0DE22380D7042380EE
:10010400E70403C7A700136747002385E7009307A5
:10011400004B01000100FD17EDFFB71700409306E7
:1001240070052380D704130780FA2380E7047D89B0
:100134002394A700010001000100010023800704AB
:100144002380D7042380E704930610053727004053
:10015400A303D780238007048280137605046DDE11
:1001640003C6A700418A0DE22380D7042380E70455
:1001740003C7A700136707012385E7009307007DE2
:1001840001000100FD17EDFFB7170040930670054D
:100194002380D704130780FA7D892380E70413653D
:1001A40005042394A700010001000100010023803D
:1001B40007042380D7042380E704930630053727F8
:1001C400004079B74111814601468145114506C673
:1001D400912AB7170040130770052380E70413071B
:1001E40080FA2380E70403C7670413671700238397
:1001F400E70423800704B24041018280814601461E
:10020400814511450522B717004013077005238067
:10021400E704130780FA2380E7047D572396E70257
:1002240003C76704136717002383E70423800704C5
:1002340001A0BD473305F50201007D1575FD8280DF
:10024400411122C426C206C6AA840144631794003D
:10025400B240224492444101828005041305803E49
:100264004204C13F4180DDB72303048015472303C3
:10027400E48001002302A480828083076480E3CEAB
:1002840007FE23030480828083076480E3CE07FE95
:1002940003454480828083076480E3CE07FE230203
:1002A400A4808280411126C44AC24EC006C6137778
:1002B400F50BAD47AA892E8995446306F7001945C5
:1002C4006537653F8D444E854537FD59FD14639868
:1002D4003401B240A244124982494101828013553B
:1002E40009011375F50F453F2209CDB7011126CC3D
:1002F40006CEB704080051371545BD377137693745
:100304002AC6A53F32459377150089EB136515007E
:100314001375F50FF240E24405618280FD14E9FC97
:100324000145CDBF397126DC4ADA4ED852D656D4AF
:100334005AD25ED006DE62CE66CCB7E700E07D57C7
:1003440083AA070022C603AA470023A0E71823A212
:10035400E718B7170040130770052380E704130755
:1003640080FA2380E70483C74704930B75FFB684A0
:10037400E20793FBFB0F8546AA892E8B328937242B
:100384000040E187015763FA76016308D500894686
:10039400130700026313D5000157D98F93F7F70FA2
:1003A400B71C00402382FC0411472303E480130597
:1003B400F00F5D3D094CD13563697C11B707070027
:1003C4003E9B378707007955637EEB02B3079B009A
:1003D400636AF702A9476399F90689E48144713D88
:1003E40026850DA0DA850945753D05090345F9FF04
:1003F400FD14050B4D3581C49377FB0FFDF7FD35D7
:1004040069FD7D55B7170040130770052380E70485
:10041400130780FA2380E70403C74704418B238230
:10042400E704F250B7E700E023A0571123A24711D5
:10043400E25432445259C259325AA25A125B825B74
:10044400724CE24C21618280A5476395F906856967
:100454001309F00FB3069900B3742B01B694134932
:10046400F9FFB3749900856B33796901416B938704
:10047400F9FFB3F7270199E363FC340193D94900E9
:10048400C147E3E637FF99BF0569C1697D19D9B74B
:100494001305800D638869011305000263847901E3
:1004A40013051008CA85FD3B913521DD4E99B384AF
:1004B4003441D9B7DA852D45F533CA94E30099F26E
:1004C4000509D933A30FA9FED5BF9387F9FF93F785
:1004D400F70F636CFC0803C75C04B70708001377C5
:1004E400070219E3B78707007955E37DFBF033076B
:1004F4009B00E3E9E7F089476390F9048980D549D3
:10050400E38E04ECDA850945713B11090327C9FF21
:1005140091472320E48003076480E34E07FE23030E
:100524003481FD17EDFBFD14110B81C49377FB0F90
:10053400E9FF6D3B71F5F1B58547E387F9F4DA8599
:100544002D458D339389F4FFE38A04E8353B93F713
:10055400390091EB8326048003270900930749009F
:10056400E39FE6E63E89CE84F1BFB5476396F90082
:100574001305900BD5399DB5B1471305B00AE38B2C
:10058400F9FE9947639EF902DA852D45213B8144A2
:100594008D4BA149D53963967401832704802320A8
:1005A400F9008504E39834FF8327048013172B0193
:1005B400635507002312F90015B52322F90039BD4C
:1005C4009D476399F90281451305B004E139BD449F
:1005D4002320090023220900FD597D3193F774007B
:1005E400CA9703C70700FD14398D2380A700E3963B
:1005F40034FFEDB3A1476392F904CD398144630D0F
:100604000B008D479304C0036308FB0093040005AB
:1006140063048B01930440041375C507E30095DC60
:10062400194599319939054581312685AD310945F9
:100634009D316D39E31405DAE9B391476399F90003
:1006440013056006153115391305900925B7E3879D
:0806540009D8F15469B300005C
:10065C009741002093814124178100201301C199F7
:10066C001305400097350020938505191736002097
:10067C001306067E63FAC5008322050023A05500ED
:10068C0011059105E3EAC5FE17550000130545B8A1
:10069C0097450020938545961386818063FAC500A3
:1006AC008322050023A0550011059105E3EAC5FE40
:1006BC0013858180938581A76377B500232005007E
:1006CC001105E36DB5FE9302800873A002309732DA
:1006DC0000209382621293E21200739052309702C0
:1006EC0000009382021273901234730020303D4349
:1006FC002A876373C3029377F700BDEFADE593765A
:10070C0006FF3D8ABA960CC34CC30CC74CC74107B5
:10071C00E36BD7FE11E28280B306C3408A069702D0
:10072C00000096966780A6002307B700A306B700C3
:10073C002306B700A305B7002305B700A304B70031
:10074C002304B700A303B7002303B700A302B70029
:10075C002302B700A301B7002301B700A300B70021
:10076C002300B700828093F5F50F93968500D58D05
:10077C0093960501D58D61B79396270097020000DB
:10078C0096968682E78086FA9680C1171D8F3E96D4
:10079C00E374C3F8A5B7411122C437140040832772
:1007AC00840A06C6854593E707202324F40A13051B
:1007BC000010EF10E0478D4513050020EF10404767
:1007CC00EF10406E81454145EF108046894501454B
:1007DC00EF10C043EF10403A2394A180230C040483
:1007EC008327840C37074000B240D98F2324F40CA4
:1007FC00224485453705400041016F10C04D011161
:10080C001305800406CE22CC26CA4AC84EC652C452
:10081C0097300020E780C00ABD3F17250000130564
:10082C00A538EF10B0115D20EF007054014793060E
:10083C00000F1306000F81450145EF0070734164F2
:10084C0013070480C146172600001306663681453F
:10085C000145EF10000C7D47C1461726000013061A
:10086C006636C1450145EF104022371700408327FB
:10087C00870C8566371A0040D58F2324F70C130498
:10088C000480972900009389E93417290000130983
:10089C002935972400009384E43851459730002083
:1008AC00E780801983274A0C13979700E34707FECC
:1008BC002287B1464E86C1450145EF1080054A8519
:1008CC00EF00D0102685EF007010C1BF93874183D5
:1008DC0023ACF1809387418F23AEF18093874197AE
:1008EC00411123A0F1829387419F06C623A2F18276
:1008FC00EF10605EB240B7E700E03707400023A07E
:10090C00E7104101828081471386C18113F7F70FED
:10091C006364A7006F10006418423E97834607007B
:10092C00850793C6F6FF2300D704CDB781471386FE
:10093C00018213F7F70F6364A7006F10006318426E
:10094C003E9783460700850793C6F6FF2300D7041E
:10095C00CDB781471386418213F7F70F6364A70065
:10096C006F10006218423E9783460700850793C6B6
:10097C00F6FF2300D704CDB781471386818113F787
:10098C00F70F6364A7006F10006118423E9783460F
:10099C000704850793C6F6FF2300D708CDB7B787A2
:1009AC00004003C767001377F70F9376270063881F
:1009BC000678011106CE22CC26CA4AC84EC652C4AD
:1009CC0003C777009306000313770703630BD70263
:1009DC0003C7770091461377F7036300D72663EBC1
:1009EC00E6088546630DD71A630307188946630822
:1009FC00D71C8D466304D720B78700400947238353
:100A0C00E7003787004083477700E207E18763D42C
:100A1C00073A930720FC2301F702938681818042D9
:100A2C008349740083476400A209B3E9F900239851
:100A3C003181834714002387F18003490400137725
:100A4C0009066300072813770904631E0720137730
:100A5C000902630A0720F91793F7F70F254763611B
:100A6C00F734172700001307E71E8A07BA979C4331
:100A7C00BA978287930620026303D71663E9E602CE
:100A8C0093060002630CD70493061002E316D7F604
:100A9C0003C76702134707042383E70203C76702F0
:100AAC001377C70F136727002383E702B1B79306A9
:100ABC0030026305D71693064002E31FD7F203C733
:100ACC002703134707042389E70203C72703137778
:100ADC00C70F136727002389E70239BF03C7E180DB
:100AEC009546630BD7069947630AF7008D47E305D4
:100AFC00F7F0B78700402380070285A89387018110
:100B0C0003D4070013070004BE8463748700130426
:100B1C000004938781811389418188434204832592
:100B2C00090041802286EF10604883D70400937936
:100B3C00F40F818F2398F180832709003E9423AA18
:100B4C008180B78700402380370303C727021347F0
:100B5C0007042381E7024DB503C7370083C6018123
:100B6C0013770708558FA381E7000947DDB783C7C3
:100B7C00870003C7E180A547E310F7E893878181DD
:100B8C009C43172500001305252183C7070089E71F
:100B9C00172500001305C521EF10405AB1BD03C73E
:100BAC00770013770704E30907E403C767021347C9
:100BBC0007082383E70203C58700B13335BD03C79C
:100BCC00770013770704E30907E203C7A70213476B
:100BDC0007082385E70203C58700893B31BD03C79E
:100BEC00A702134707042385E70203C7A70213775D
:100BFC00C70F136727002385E702FDBB03C77700E8
:100C0C0013770704E30A07DE03C7E7021347070855
:100C1C002387E70203C587002D3BF9BB03C7E70217
:100C2C00134707042387E70203C7E7021377C70FAD
:100C3C00136727002387E702C1B303C77700137735
:100C4C000704E30B07DA03C72703134707082389B5
:100C5C00E70203C587000D3345B39387418383C7F0
:100C6C003700A385F180620913598941814663528B
:100C7C00090283D70181930600043E8763F4F600D2
:100C8C001307000442074183998F9376F70F23983B
:100C9C00F180B78700402380D702130700FC29A2FC
:100CAC009387418383C72700A386F1806DBF938709
:100CBC00B18083C70700238AF18275B79387D180EF
:100CCC00CDBF2D47636EF70C17270000130707FBEA
:100CDC008A07BA979C43BA978287834734000347A5
:100CEC0024009946A207D98F13D78700630AD71817
:100CFC0063EFE60089466308D70C0D46630FC712F5
:100D0C0085476302F7049304F00F8147A9A093076A
:100D1C0010026304F70C930720026304F70E9D473F
:100D2C00E313F7FE1306900397250000938565FFE8
:100D3C00173500201305652CEF104027973700203E
:100D4C009387872B69A0972700009387270123AAF5
:100D5C00F1808144C947C207C18363F437012398EA
:100D6C00F1809387018103D607009307000463F495
:100D7C00C70013060004138A4181931906018325C9
:100D8C000A0093D909014E862285EF1020220326F2
:100D9C000A004E9623AAC1809307F00FE395F4EC5A
:100DAC00B78700401307F0FC2381E702B7870040A8
:100DBC0009472383E700F2406244D2444249B249D6
:100DCC00224A0561828097270000938767F523AA42
:100DDC00F18081449307B003BDBF8347440089CBA6
:100DEC000547E392E7F297270000938717F629A0AF
:100DFC00972700009387E7F323AAF1808144A54746
:100E0C0099BF8347440099EB97270000938707EA23
:100E1C0023AAF18081449307E00335BF0547639A09
:100E2C00E70617270000130767EC23AAE18081442B
:100E3C002386F1809307400339BF93F7F70F0547DB
:100E4C00638EE7008DC7E390D7EC9727000093875C
:100E5C0027F323AAF1808144B147F5BD9727000001
:100E6C00938707F123AAF1808144B947EDB59747E1
:100E7C0000009387673923AAF18081449147E1BD33
:100E8C0097270000938787F023AAF1808144A94714
:100E9C00D9B581449307F00F7DBD83472400239877
:100EAC00F180D1B383C7A1802300F40003D7018163
:100EBC008547E3FAE7DA8547DDB7834724002385C6
:100ECC00F18055B31377F90189476310F70A83470B
:100EDC0044008D466382D70663EEF6008546638F29
:100EEC00D706E39FE7EA378700408347A70293F7CB
:100EFC00370795A0130720086387E704130730080A
:100F0C006381E70213071008E39CE7E8378700408A
:100F1C008347670293F7C70B93E727002303F70276
:100F2C0099B3378700408347E70293F7C70B93E7E2
:100F3C0027002307F70205BB378700408347E702EA
:100F4C0093F73707FDB7378700408347A70293F71E
:100F5C00C70B93E727002305F70231B3378700400F
:100F6C008347670293F7370755BFE31B07E28347B5
:100F7C00340003472400A207D98F0547E395E7CE39
:100F8C0083C7218193F7E70F2389F180E9B91377A0
:100F9C00F90189476314F70A8347540083464400D8
:100FAC00A207D58F8D466380D70663E0F60285468F
:100FBC00638DD706E396E7DE378700408347A702A9
:100FCC0093F7370793E7C70079B7130720086385B2
:100FDC00E70413073008638FE70013071008E39149
:100FEC00E7DC378700408347670293F7C70B93E72B
:100FFC0037002DB7378700408347E70293F7C70BBD
:10100C0093E737003DB7378700408347E70293F7F4
:10101C00370793E7C70031BF378700408347A702E4
:10102C0093F7C70B93E737003DB7378700408347EB
:10103C00670293F7370793E7C700CDB5E31207D6DE
:10104C008347340003472400A207D98F0547E39C4C
:10105C00E7C083C7218193E717003DB72300040045
:10106C00B1B59375F9018947639FF50A2300040014
:10107C0098428347570003464700A207D18F0D467D
:10108C00638BC7046361F60205466384C7086386F5
:10109C00B7069C42A380070003D701818547E3F480
:1010AC00E7BC8947EDBB930520086383B704930520
:1010BC003008638BB70093051008E39CB7FCB78727
:1010CC00004083C7670229A0B787004083C7E702A7
:1010DC0093F7370401A8B787004083C7E70231466E
:1010EC0093F7C708E397C7FA85472300F70055B76E
:1010FC00B787004083C7A702E1BFB787004083C70B
:10110C00A702B14593F7C708E395B7F82300C700CA
:10111C0049B73786004003466602B1451376C608C8
:10112C00E319B6F6D9B7B5F52300040003C721813E
:10113C0019C398425DBF9C422380070099BF9376E8
:10114C00170085C20947A38107002381E702238387
:10115C00E7022385E7022387E70205472383E7009D
:10116C00828093764700FDDA03C757001147FDB71D
:10117C00011122CC02C41384C1812305A1000840B3
:10118C0021462304B100130505042C0006CE02C62B
:10119C00EF00D0612145EF00F05B51459730002006
:1011AC00E780808908402C0021461305050402C401
:1011BC0002C6EF00B05F2145EF00D0596244F24007
:1011CC00514505611733002067000387797122D4DC
:1011DC0026D24AD04ECE52CC56CA5AC85EC662C42B
:1011EC0006D62A84214B930B0003E5441309F00225
:1011FC009309C005130A0006930AC007130CD00705
:10120C008307040089EFB250225492540259F249D8
:10121C00624AD24A424BB24B224C4561828013F552
:10122C00F70F1307F5FC1377F70F6365EB00351514
:10123C00814529A88145638B77091307F5FB137743
:10124C00F70F63E9E400130535FC894562056185F8
:10125C00053799A01307F5F91377F70F63E5E40049
:10126C00130535FAF1B76385271B6346F908130795
:10127C0060026383E714634DF70213072002638156
:10128C00E718634DF700130700026381E71063430F
:10129C00F71029476388E71805049DB71307400228
:1012AC006384E710635EF70E8945130520024DB782
:1012BC001307A0026386E710634DF7001307800243
:1012CC006384E7108145635EF7128945130570024C
:1012DC0041B71307C0026389E71263C3E710130712
:1012EC00D0026387E70E1307E0028145E396E7FA25
:1012FC0013057003B1BF6389370F63C8F904130773
:10130C00D003638BE70C6340F7021307B0036387CA
:10131C00E70E6343F7101307A0038945E39EE7F636
:10132C001305300335B71307F003638BE70E63C760
:10133C00E70E130700046382E7061307B005814527
:10134C00E39CE7F41305F00221B7638D4709634B67
:10135C00FA001307E005638DE7048145635BF7082A
:10136C00894585A8638A570963C8FA001307B00733
:10137C008945E389E7FC0DB7638C87071307E00702
:10138C008945E39BE7F013055003D9B58145130557
:10139C00C0027DBD8945794565BD89457D454DBDFD
:1013AC008945130500026DB58945130510024DB52D
:1013BC0089451305300269BD89451305400249BDB5
:1013CC0089451305500269B589451305600249B575
:1013DC0081451305D002ADBD81451305E0028DBDDD
:1013EC008945E5BF814545B78145130510038DB58A
:1013FC00894513050003A9BD8945C5BF81450DB7B6
:10140C00894513054003A9B581451305600389B5CA
:10141C008145130580032DBD8945C5BF8945C9BDCF
:10142C008945C5BF8145130580051DB5B71700401B
:10143C0003A7870A411106C61367070223A4E70A0C
:10144C0003A7870AA1662565558F23A4E70A03A77E
:10145C00870A85668D45558F23A4E70A1305050277
:10146C00EF00007D19658D45EF00807CB74700408B
:10147C001147A381E70009472380E7001307000603
:10148C002380E70003C717000D4513670701A380EE
:10149C00E70003C717001377E70FA380E700B240FC
:1014AC0041016F00B00D411122C4371400400327D5
:1014BC00C40A26C2856406C6458F2326E40AEF00BB
:1014CC0090128327840AB240C58F2324F40A224445
:1014DC00924441018280411122C42A84218106C692
:1014EC00D9371375F40F2244B24041016DBF41113D
:1014FC0022C4371400408327C40A06C693E70702A8
:10150C002326F40A4D378327840AB24093E7070257
:10151C002324F40A224441018280011122CC2A8422
:10152C001305A00206CE36C22EC632C4C937130527
:10153C001400420541814537224605061315060164
:10154C004181513F1305B0025D37B245E905139552
:10155C000501418149379246E906139506014181FF
:10156C009D3F6244F2401305C002056149B7411129
:10157C0006C622C426C2371400404D3D0327C40AB8
:10158C00A1641545458F2326E40A97200020E780A7
:10159C00A04A8327840A13058007C58F2324F40AE5
:1015AC0097200020E7804049454591371305800777
:1015BC0097200020E78040481305100B0D3F154580
:1015CC00DD351305C003C5351305C003E93D13050F
:1015DC00200B313F1545C13D1305C003E9351305FB
:1015EC00C003D1351305300B193715456D3D130567
:1015FC00C003553D1305C0037D3515456D351305E9
:10160C00C00355351305C003793D1305400BC53593
:10161C000D45513D1305000CD93D1305B00A61353C
:10162C002D455135114541351305100CC9351305A0
:10163C00500C953D1305200C5D3D3545AD350145F0
:10164C009D351305300C65351305D008A93D1305E0
:10165C00A006913D1305400C593D1305D008A1354A
:10166C001305E00E89351305500C51353D45253DCC
:10167C001305000EAD3D1D453D3539452D35214534
:10168C001D351D450D354145393D1D45293D094546
:10169C00193D1D45093D254539353D452935130570
:1016AC005002113513056003FD3B0145ED3B21450F
:1016BC00DD3B1145CD3B4145FD331305100E053D7A
:1016CC002945D5333545C5332145F13B1D45E13B16
:1016DC003D45D13B1D45C13B0945F1331D45E1332A
:1016EC002545D1333D45C133130550026D3B1305E0
:1016FC005003553B0145453B254575331145653335
:10170C00414555331305C00FDD3313050008613B0C
:10171C001305A003E93B1545793313056003C13B61
:10172C001305800A493313051002D13313059002B7
:10173C007D3B1305A002653B0145B5336945A533D7
:10174C000145953313059006B93B1305B00245339B
:10175C000145913B0545813B0145B1331305000A19
:10176C0099332244B24092441305C002410141B363
:10177C0001114AC84EC63689B289FD167D16C206BD
:10178C004206C182418222CC52C456C206CE26CA1F
:10179C002A8A2E84BA8A513363662403F240624447
:1017AC00D2444249B249224A924A05618280850458
:1017BC005685C2040D33C180E3EB34FF05044204AB
:1017CC004180D9BFD284CDBF411122C4AE863284B0
:1017DC002A8606C6993322852244B2404101E5B9D6
:1017EC005D71A2C413F4760093D7360033348000B5
:1017FC0001163E94620693D71600618656DA5ED6C1
:10180C003304F402930B4002B14AA6C24EDE5AD8FE
:10181C0062D466D26AD06ECEB30B760386C6CAC0CB
:10182C0052DC2A8B2E8C1374F40F931C4600AE845E
:10183C008149B30A5603314DC14D614897280000C8
:10184C009388C8FE172300001303439F171E000044
:10185C00130E8E5793F7F90F63E18702B6402644B7
:10186C0096440649F259625AD25A425BB25B225CE8
:10187C00925C025DF24D61618280639DA607B38725
:10188C003A01F29703C90700138A840093170B01DE
:10189C00137AFA0FC183131689016186635B060202
:1018AC00939504013A863E85C18136C63AC43EC240
:1018BC00213FB24622479247171E0000130ECE500E
:1018CC00172300001303839797280000938808F6CA
:1018DC006148850493F4F40F060933868441137927
:1018EC00F90F6315D602050B137BFB0F628A850972
:1018FC00D2848DB76396B601B3873C019A9759B7DA
:10190C00E39E06F5B3877901C697ADBFE3159AF848
:10191C00F9BF797152CC56CA5AC8130A000A13DBA4
:10192C001600930A000522D426D24AD04ECE5EC6AB
:10193C0062C406D62A84AE84B28936893A8C330ABC
:10194C006A41930BE005B38ADA40038609009307DA
:10195C0006FE93F7F70F63FEFB00B250225492542D
:10196C000259F249624AD24A424BB24B224C45616F
:10197C00828063568A00CA9493F4F40F014463D4B2
:10198C009A008144014422856287CA86A6855A94AE
:10199C00813D1374F40F85094DBF39715AD006DEA1
:1019AC003E8B22DC26DA4AD84ED652D456D25ECEA4
:1019BC0062CC66CA6AC832C6C1476392F60263102B
:1019CC00D702972700209387276D80432A89AE8BF7
:1019DC002285A52F3246058101476360A702F2508C
:1019EC006254D2544259B259225A925A025BF24B67
:1019FC00624CD24C424D2161828093161700A29604
:101A0C008385060083070600639AF5068386160015
:101A1C00830716006394F606931457005E84814A7C
:101A2C00130C0002973C0000938C0CB6414DE388DC
:101A3C008AFBB3879A00E6979309840003CA0700D0
:101A4C00C20993D9090193178A01E18763D607006C
:101A5C005A86A2854A858D3B050442044180060ABC
:101A6C00B3077441137AFA0F639EA7010509420963
:101A7C0013590901DE89850A4E8455BF05074207B3
:101A8C004183A1BFE39189FCFDB75D71CAC013D935
:101A9C0016004EDE52DC56DA330A2541930A050A4B
:101AAC00420993890505A2C4A6C25AD85ED662D44F
:101ABC0066D26AD06ECE86C6AA8D328DB68C3A8B23
:101ACC00130A0A0A135909012E84AA848147B38A7E
:101ADC00DA40B389D940938B2600130C0008030617
:101AEC000D0005E2B640264496440649F259625A66
:101AFC00D25A425BB25B225C925C025DF24D616138
:101B0C008280A1E71377F60F6366EC0663569A00A2
:101B1C00669442044180EE84E3C689FC3547631C1D
:101B2C00E60066944204050D4180EE84CA94C2041A
:101B3C00050DC1806DB75A87E6869375F40F13F5C2
:101B4C00F40F3EC67139B247D5B763D69A005E948E
:101B5C0042044180EE84E3C789F8DA876A862685D9
:101B6C006687E686A285E6940D3DC204090DC18008
:101B7C008147B5B78547A5B7B717004083C8870518
:101B8C00194703C89705A38C0704238CE70403C7E4
:101B9C00970593F8F80F1378F80F13679702A38C37
:101BAC00E7040547238DE704371700408347A70553
:101BBC009305A705858BFDFB0565C14637170040CE
:101BCC00054E1303F5FF2380C50103C60500058AE6
:101BDC006DFE0356C705FD16C2061346F6FF337697
:101BEC006600C182B297E5F283469705A1079183FF
:101BFC0093F6760F13050580A30CD7041D8D230CCB
:101C0C0017054205A30C070541858280B7170040D4
:101C1C0003C777051A0592054D8D1377E70F1365EA
:101C2C003500A38BE7041375F50FA38CA7048280F2
:101C3C00914763EEB70217370000130767548A0504
:101C4C00BA959C41BA978287B717004003A7470BF8
:101C5C001345F5FF698F23AAE70A03A7070B698FC2
:101C6C0023A8E70A03A7070A798D23A0A70A828075
:101C7C00B717004083A6470B1347F5FFF98E23AA2D
:101C8C00D70A83A6070B558D23A8A70A83A6070A94
:101C9C00758F23A0E70A8280B717004003A7470B74
:101CAC00498F23AAE70A03A7070B1345F5FF45BF86
:101CBC00B717004083A6470B1347F5FF758F23AA70
:101CCC00E70A03A7070A598D4DB7B717004003A7BA
:101CDC00470B498FEDB7914763EEB70217370000FA
:101CEC001307474B8A05BA959C41BA978287B71759
:101CFC00004003A7470D1345F5FF698F23AAE70C96
:101D0C0003A7070D698F23A8E70C03A7070C798D90
:101D1C0023A0A70C8280B717004083A6470D13475A
:101D2C00F5FFF98E23AAD70C83A6070D558D23A892
:101D3C00A70C83A6070C758F23A0E70C8280B7171E
:101D4C00004003A7470D498F23AAE70C03A7070DF3
:101D5C001345F5FF45BFB717004083A6470D134742
:101D6C00F5FF758F23AAE70C03A7070C598D4DB708
:101D7C00B717004003A7470D498FEDB78547630997
:101D8C00F50201C989476302F5048D476306F50422
:101D9C008280B747004003C707001377770F238073
:101DAC00E70003C7170013670702A380E7008280D0
:101DBC00B747004003C707001377770F2380E7006E
:101DCC0003C717001377F70DCDB7B747004003C70C
:101DDC00070013678700E1B7B747004003C7070048
:101DEC0013678700E1BFB747004003C707001377AD
:101DFC00F70E2380E7002382A70037470040834774
:101E0C00670093F70704E5DF8280B717004003D51E
:101E1C008700420541819377050491EB9377F50197
:101E2C003755E801130505803345F5028280937719
:101E3C00050C130700046397E7009377F50137450A
:101E4C009C1CCDB72165130505D08280814737379F
:101E5C000040A14663C4C700328582800345B74069
:101E6C00E38EA6FE3385F5000345050085072304A4
:101E7C00A740CDB7411122C406C62A847937294719
:101E8C00B307E502B2408D83B3D78702224495078E
:101E9C00B3D7E70237370040C207C1832316F74098
:101EAC0041018280716541111305052006C6D937A1
:101EBC00B7370040130770F82381E7400D47A38123
:101ECC00E74013070004A380E74005472387E7405A
:101EDC00B24041018280B78700402380070013077E
:101EEC00C0FC2386E700A386E70003D781812398F3
:101EFC00E70003D7C181239AE70003D70182239C13
:101F0C00E70003D74182239EE70089462381D7024D
:101F1C0049472383E7022385E7022387E7022389C6
:101F2C00D702A3810700130790022380E700B7169E
:101F3C00004003D7A6011367070C239DE6007D57CD
:101F4C002383E700130710F8A380E7001D472381C4
:101F5C00E7008280B78700402382A70203C767028D
:101F6C001377C70F2383E7028280B787004023844F
:101F7C00A70203C7A7021377C70F2385E702828046
:101F8C00B78700402386A70203C7E7021377C70F62
:101F9C002387E7028280B78700402388A70203C704
:101FAC0027031377C70F2389E7028280B3C7A500E5
:101FBC008D8B3307C50081E78D4763EEC700AA8779
:101FCC006370E50A83C6050085078505A38FD7FED8
:101FDC00E3EAE7FE828093763500AA8791CA83C62E
:101FEC00050085078505A38FD7FE93F63700FDB74F
:101FFC009376C7FF138606FE63F0C70683A305001E
:10200C0083A2450083AF850003AFC50083AE0501F5
:10201C0003AE450103A3850183A8C5019385450241
:10202C0023A0770003A8C5FF23A2570023A4F70120
:10203C0023A6E70123A8D70123AAC70123AC670075
:10204C0023AE17019387470223AE07FF75B7904164
:10205C009107910523AEC7FEE3EBD7FEE3E4E7F669
:10206C008280011126CA4AC806CE22CC4EC652C462
:10207C00AA842E8901C51C4D91E331239C4C8044CC
:10208C0099E326850923973700009387E713631C90
:10209C00F402C0408357C400A18BB1C71C48A1C730
:1020AC00FD59294A1C4483450900FD17B1E91CC49C
:1020BC0063DE07062286A94526854D20FD57630859
:1020CC00F502294535A0973700009387E711631473
:1020DC00F4008044C1B7973700009387E70CE31BEB
:1020EC00F4FAC04445BFA28526850D2A55D97D55E5
:1020FC00F2406244D2444249B249224A056182808C
:10210C001CC4050963D70700184C63CBE70063892F
:10211C0045011C401387170018C02380B70059B71E
:10212C00228626852528E31F35F7D1B71C40138757
:10213C00170018C029472380E70061B797270020B4
:10214C009387C7F5AA85884329BFAA87850703C744
:10215C00F7FF6DFF3385A7407D158280011122CCDE
:10216C0026CA4AC806CE4EC6AA842E89328401C518
:10217C001C4D91E30929973700009387E7046319F5
:10218C00F406C0401C4C1CC48357C400A18BC9C3AB
:10219C001C48BDCF1C4808409379F90F1379F90FEF
:1021AC001D8D5C486346F500A2852685752C2DE5B2
:1021BC001C440505FD171CC41C401387170018C0D0
:1021CC00238037015C486389A7008357C400858B43
:1021DC0081CBA9476316F900A285268571240DEDE4
:1021EC00F24062444A85D2444249B2490561828038
:1021FC0097370000938747FF6314F400804459B766
:10220C0097370000938747FAE31EF4F6C0449DBF4E
:10221C00A285268521203DDD7D59D9B7411197270F
:10222C0000209387A7E726C2844322C44AC006C66F
:10223C002A892E8489C49C4C99E32685A926973734
:10224C000000938767F8631CF402C0400317C400B6
:10225C0093170701C18393F68700B5EE93F6070138
:10226C009DEEA5472320F900136707042316E4000D
:10227C007D55B240224492440249410182809737F5
:10228C000000938767F66314F4008044C1B7973756
:10229C000000938767F1E31BF4FAC04445BF918BB0
:1022AC008DC74C5889C9930744046384F5004A854B
:1022BC008123232A04028357C4002322040093F7AA
:1022CC00B7FD2316F4001C481CC08357C40093E7C9
:1022DC0087002316F4001C4881EF8357C4001307B2
:1022EC00002093F707286385E700A2854A859D2186
:1022FC008357C40013F7170005C75C482324040058
:10230C00B307F0401CCC1C480145A5F78317C4004B
:10231C0013F7070839DF93E707042316F40089BF86
:10232C00898B014791E3584818C4F1BF83D7C50086
:10233C00011122CC26CA06CE4AC84EC613F7870016
:10234C00AA842E8471EFD841634DE000B841634AF2
:10235C00E0000145F2406244D2444249B249056171
:10236C00828058547DD703A904009396370123A08B
:10237C00040063DD060670488357C400918B99C72F
:10238C005C401D8E5C5899C33C401D8E5C540C50B7
:10239C00814626858297FD570357C400631DF500BF
:1023AC009440F54763E8D706B70740208507B3D7B5
:1023BC00D700858BA5C31C48232204001CC093178F
:1023CC00370163D80700FD576314F5009C4091E377
:1023DC0068C84C5823A02401ADDD930744046384E2
:1023EC00F50026853121232A0402A5B70C5001469D
:1023FC00854626850297FD572A86E31FF5F69C40F5
:10240C00A5DF75476385E70059476394E70423A06C
:10241C00240181B7136707042316E4007D551DBF03
:10242C0083A90501E38709F203A905008D8B23A07D
:10243C00350133093941014791E3D84918C4E35AAE
:10244C0020F11C540C50CA864E862685829763490F
:10245C00A0008357C40093E707042316F4007DBF44
:10246C00AA993309A940E1BF9C49B9CF011122CCEB
:10247C0006CE2A8411C51C4D81E72EC62922B245F1
:10248C0097370000938747D4639BF5004C408397A4
:10249C00C50095C722856244F240056141BD97375E
:1024AC000000938767D46394F5000C44CDB797373D
:1024BC000000938767CFE39CF5FC4C44C9BFF24006
:1024CC00624401450561828001458280411122C42C
:1024DC0006C62A842316B5002317C5002320050041
:1024EC0023220500232405002322050623280500AA
:1024FC00232A0500232C0500214681451305C5051B
:10250C00EFE0EF9E97070000938767485CD0970732
:10251C0000009387C74A1CD4970700009387074F86
:10252C005CD4970700009387C75100D01CD8B240E9
:10253C0022444101828097050000938525F389AAE6
:10254C00411126C2130680069384F5FFB384C4029E
:10255C004AC02E8922C406C693854407252E2A8498
:10256C0001CD2320050023222501310508C4138643
:10257C0084068145EFE0AF972285B2402244924415
:10258C000249410182801C4DBDE3411106C622C4A3
:10259C0097070000938767FA1CD59737000093873D
:1025AC00E7C69C432324050423260504232805049D
:1025BC006314F50085471CCD2A841D2848C022854C
:1025CC00052808C422852D2048C448400146914561
:1025DC00F53D08440546A545D53D48440946C94541
:1025EC00F53585471CCCB240224441018280828063
:1025FC00411197370000938767C126C284434AC0B4
:10260C0006C69C4C22C42A8999E32685AD3F938447
:10261C0084048044DC40FD1763D607009C40B9CF8E
:10262C008440C5BF0317C40039E7C177850723224F
:10263C0004062320040023220400232404005CC489
:10264C0023280400232A0400232C0400214681455E
:10265C001305C405EFE0AF89232A0402232C0402DE
:10266C0023240404232604042285B24022449244E9
:10267C000249410182801304840671BF91454A8549
:10268C00C13588C051FDB1472320F9000144E9BF91
:10269C00797122D44AD052CC56CA5AC85EC606D6D4
:1026AC0026D24ECE2A8AAE8A130485040149054BE4
:1026BC00FD5B09ECB25022544A8592540259F249FE
:1026CC00624AD24A424BB24B456182800444832910
:1026DC004400FD1963D409000040E1BF83D7C40056
:1026EC00637BFB008397E40063877701A6855285A3
:1026FC00829A3369A90093848406E1BF1971A6DA22
:10270C00AE848395E500A2DC86DE328463DC0500B2
:10271C0083D7C40023A0060093F707089DE3930713
:10272C00004015A0300836C68D2EB246E34205FE99
:10273C007247BD67F98F7977BA9793B717009CC228
:10274C00F9BF930700041CC0F6506654D6540145DB
:10275C000961828083D7C500011122CC06CE26CA1E
:10276C004AC8898B2E8489CF930774041CC01CC85B
:10277C0085475CC8F2406244D2444249056182807C
:10278C0074003000AA849D3FA2452A89268519220F
:10279C0001ED8317C40013F7072069FFF19B93E742
:1027AC0027002316F400C9B7970700009387E7D8D2
:1027BC009CD48357C40008C008C893E707082316A5
:1027CC00F400A2475CC8B24789CF8315E400268584
:1027DC00D52C01C98357C400F19B93E7170023162E
:1027EC00F4008357C4003369F9002316240159B748
:1027FC00CDC183A7C5FF411122C406C626C21384CE
:10280C00C5FF63D307003E94AA843926938781823F
:10281C009C4399EB2322040023A481822244B240DE
:10282C00268592444101D5AC637EF40014403307F5
:10283C00D4006396E7009843DC43369718C05CC01D
:10284C00E1BFBA87D84319C3E37DE4FE94433386D2
:10285C00D700631F86001040B29694C33386D7000E
:10286C00E31EC7FA10435843B29694C3D8C37DB73E
:10287C006375C400B1479CC055B71040B306C40083
:10288C006316D70014435843B29614C058C0C0C343
:10289C0071B78280011126CA93843500F19806CE57
:1028AC0022CC4AC84EC6A104B14763F1F404B1442A
:1028BC0063E0B4042A898D249387818298433A84F7
:1028CC0031E09387C1829C4391E781454A85512829
:1028DC0023A6A182A6854A856920FD596317350771
:1028EC00B1472320F9004A850D2C29A0E3D204FC22
:1028FC00B1471CC10145F2406244D2444249B2493D
:10290C00056182801C40858F63CE0702AD4663F65D
:10291C00F6001CC03E9404C031A05C4063128702D8
:10292C0023A4F1824A85D52A1305B40093074400E9
:10293C0061993307F54061D33A94898F1CC065BF08
:10294C005CC3CDB722874040A5BF130435007198F6
:10295C00E30385FCB305A4404A852120E31D35FB28
:10296C0041B7411122C42A842E8523AA01A606C68A
:10297C00112CFD576317F500938741A79C4391C316
:10298C001CC0B240224441018280411122C42E84D9
:10299C008395E50006C65922634905007C48AA9731
:1029AC007CC8B2402244410182808357C4007D77A9
:1029BC007D17F98F2316F400EDB783D7C5000111ED
:1029CC0022CC26CA4AC84EC606CE93F70710AA8454
:1029DC002E843289B68991C78395E50089460146D4
:1029EC0031228357C4007D777D17F98F2316F400AD
:1029FC008315E4006244F240CE864A86B2494249CD
:102A0C002685D24405613DA8411122C42E848395AC
:102A1C00E50006C6E128FD570357C400631BF5000B
:102A2C00FD77FD17F98F2316F400B24022444101C3
:102A3C0082808567D98F2316F40068C8FDB783950B
:102A4C00E50005A8411122C42A842E85B28536865C
:102A5C0023AA01A606C6EFF06FBFFD576317F5005A
:102A6C00938741A79C4391C31CC0B24022444101AF
:102A7C008280411122C42A842E8523AA01A606C66F
:102A8C00E120FD576317F500938741A79C4391C341
:102A9C001CC0B240224441018280411122C42A84CC
:102AAC002E85B28523AA01A606C66D20FD57631795
:102ABC00F500938741A79C4391C31CC0B2402244AC
:102ACC0041018280411122C42A842E8523AA01A6A9
:102ADC0006C67920FD576317F500938741A79C43E1
:102AEC0091C31CC0B240224441018280411122C4D6
:102AFC002A842E85B285368623AA01A606C6BD2059
:102B0C00FD576317F500938741A79C4391C31CC0E5
:102B1C00B24022444101828082808280411122C4D1
:102B2C002A842E85B285368623AA01A606C6A9203C
:102B3C00FD576317F500938741A79C4391C31CC0B5
:102B4C00B2402244410182809307800523AAF1A65A
:102B5C007D5582809307800523AAF1A67D5582803E
:102B6C009307800523AAF1A601458280930780056F
:102B7C0023AAF1A67D5582809307800523AAF1A68E
:102B8C007D558280938701839C4391C73E9523A8F2
:102B9C00A1823E858280938781A73E9523A8A1823E
:102BAC003E8582807374617274000000537065619D
:102BBC006B657220456E67696E652056312E350047
:102BCC0048656C6C6F20B9CCBCFEC9FDBCB600006E
:102BDC004B65793020646F776E000000616263642E
:102BEC0065666768696A6B6C6D6E6F707172737411
:102BFC0075767778797A0A41424344454647484985
:102C0C004A4B4C4D4E4F50515253545556575859A0
:102C1C005A0A303132333435363738390A0000002D
:102C2C0077686174206973206974207B7D5B5D7C9F
:102C3C005C3B273A222C2E2F3C3E3F607E214023CA
:102C4C0024255E262A28292D3D5F2B200A00000012
:102C5C005EE0FFFF6CE0FFFF50E1FFFF50E1FFFF84
:102C6C0050E1FFFF50E1FFFF50E1FFFF16E0FFFFD7
:102C7C000AE0FFFF50E0FFFFEAE3FFFF4CE2FFFF3B
:102C8C0028E1FFFF16E3FFFF28E1FFFF22E2FFFF31
:102C9C0062E0FFFF28E1FFFF2CE2FFFF42E2FFFFB3
:102CAC00E4E3FFFFEEDFFFFF05010906A1010507C5
:102CBC0019E029E715002501750195088102950198
:102CCC007508810195037501050819012903910205
:102CDC009505750191019506750826FF00050719E4
:102CEC000029918100C0000005010902A101090120
:102CFC00A10005091901290315002501750195038A
:102D0C0081027505950181010501093009310938E8
:102D1C001581257F750895038106C0C009023B000B
:102D2C00020100A032090400000103010100092185
:102D3C0011010001223E000705810308000A090465
:102D4C0001000103010200092110010001223400DD
:102D5C000705820304000A00120110010000004064
:102D6C003D41072100000000000100000E03770028
:102D7C00630068002E0063006E0000000C0343002B
:102D8C0048003500370078000A060002FF00FF40BB
:102D9C00010000004C69676874206F6E204E756DE1
:102DAC00204C6F636B204C45442100004C696768D4
:102DBC0074206F6666204E756D204C6F636B204CD3
:102DCC00454421000000000000000000000000004D
:102DDC00000000003F400000000000000000300038
:102DEC00400030004000000009000BC03D000BC04B
:102DFC003D00090018C024407FE0224031800000D3
:102E0C00180024C01B000D803240018003801C4040
:102E1C0027401C80074000401000600000000000AC
:102E2C00000000000000000000001F802040402037
:102E3C000000402020401F80000000000900060018
:102E4C001F80060009000000040004003F800400FD
:102E5C0004000000001000600000000000000000F2
:102E6C000400040004000400040000000000004002
:102E7C000000000000000000002001C00600380027
:102E8C00400000001F802040204020401F80000098
:102E9C00000010403FC000400000000018C021405E
:102EAC002240244018400000108020402440244040
:102EBC001B80000002000D0011003FC0014000000B
:102ECC003C80244024402440238000001F80244068
:102EDC0024403440038000003000200027C038001C
:102EEC00200000001B802440244024401B80000054
:102EFC001C0022C0224022401F8000000000000065
:102F0C000840000000000000000000000460000009
:102F1C0000000000000004000A0011002080404066
:102F2C0009000900090009000900000000004040E8
:102F3C00208011000A000400180020002340240007
:102F4C00180000001F802040274029401F4000002F
:102F5C00004007C039000F0001C0004020403FC0B6
:102F6C00244024401B8000001F8020402040204033
:102F7C003080000020403FC0204020401F800000D7
:102F8C0020403FC024402E4030C0000020403FC0B5
:102F9C0024402E00300000000F0010802040224002
:102FAC003380020020403FC0040004003FC020409A
:102FBC00204020403FC020402040000000602020E6
:102FCC0020203FC02000200020403FC024400B00A8
:102FDC0030C0204020403FC020400040004000C096
:102FEC003FC03C0003C03C003FC0000020403FC03D
:102FFC000C4023003FC020001F8020402040204078
:10300C001F80000020403FC0244024001800000016
:10301C001F802140214020E01FA0000020403FC025
:10302C002440260019C0004018C0244024402240EF
:10303C0031800000300020403FC0204030000000B4
:10304C0020003F80004000403F80200020003E00D8
:10305C0001C0070038002000380007C03C0007C042
:10306C0038000000204039C0060039C02040000064
:10307C002000384007C0384020000000304021C0FC
:10308C002640384020C00000000000007FE04020B7
:10309C0040200000000070000C0003800040000085
:1030AC000000402040207FE00000000000002000D5
:1030BC004000200000000000001000100010001064
:1030CC000010001000000000400000000000000094
:1030DC00000002800540054003C0004020003FC0B6
:1030EC0004400440038000000000038004400440BE
:1030FC000640000000000380044024403FC0004014
:10310C00000003800540054003400000000004401F
:10311C001FC0244024402000000002E00550055050
:10312C000650042020403FC00440040003C000406F
:10313C000000044027C000400000000000100010F8
:10314C00041027E00000000020403FC001400700B1
:10315C0004C00440204020403FC00040004000001C
:10316C0007C0040007C0040003C00000044007C0EF
:10317C000440040003C000400000038004400440ED
:10318C0003800000041007F004500440038000008A
:10319C00000003800440045007F00010044007C0F6
:1031AC0002400400040000000000064005400540F9
:1031BC0004C00000000004001F8004400040000018
:1031CC00040007800040044007C0004004000700D2
:1031DC0004C0018006000400060001C0070001C005
:1031EC0006000000044006C0010006C004400000B8
:1031FC000410071004E001800600040000000440E5
:10320C0005C00640044000000000000004007BE004
:10321C0040200000000000000000FFF00000000053
:10322C00000040207BE00400000000004000800013
:10323C0040002000200040000000000000000000C2
:10324C0000000000000000000000000000001FCC87
:10325C00000C0000000000000000080030006000BE
:10326C000800300060000000022003FC1E20022039
:10327C0003FC1E200220000000000E1811043FFF6A
:10328C0010840C78000000000F0010840F3800C070
:10329C00077818840078000000780F8410C411247B
:1032AC000E9800E40084000808006800700000001C
:1032BC00000000000000000000000000000007E01B
:1032CC0018182004400200000000400220041818C6
:1032DC0007E00000000000000240024001800FF0F7
:1032EC0001800240024000000080008000800FF846
:1032FC0000800080008000000001000D000E000026
:10330C000000000000000000000000800080008031
:10331C0000800080008000800000000C000C000089
:10332C000000000000000000000000060018006013
:10333C000180060018002000000007F008081004A7
:10334C001004080807F000000000080408041FFC23
:10335C00000400040000000000000E0C10141024E7
:10336C00104411840E0C000000000C181004110401
:10337C00110412880C700000000000E003200424EB
:10338C0008241FFC0024000000001F981084110466
:10339C001104108810700000000007F00888110458
:1033AC00110418880070000000001C00100010FCB4
:1033BC0013001C001000000000000E381144108493
:1033CC00108411440E38000000000700088C1044D3
:1033DC001044088807F00000000000000000030CF7
:1033EC00030C0000000000000000000000010106BA
:1033FC0000000000000000000000008001400220DE
:10340C0004100808100400000220022002200220F0
:10341C000220022002200000000010040808041002
:10342C00022001400080000000000E001200100C71
:10343C00106C10800F00000003E00C1813E414242F
:10344C0017C4082807D000000004003C03C41C402B
:10345C00074000E4001C000410041FFC11041104BC
:10346C0011040E880070000003E00C181004100406
:10347C00100410081C10000010041FFC1004100491
:10348C001004080807F0000010041FFC11041104BC
:10349C0017C410040818000010041FFC11041100BC
:1034AC0017C010000800000003E00C1810041004F2
:1034BC0010441C780040000010041FFC1084008095
:1034CC00008010841FFC10040000100410041FFC6A
:1034DC001004100400000000000300011001100192
:1034EC001FFE10001000000010041FFC11040380CC
:1034FC001464181C1004000010041FFC10040004B9
:10350C0000040004000C000010041FFC1F0000FC51
:10351C001F001FFC1004000010041FFC0C0403000F
:10352C0000E010181FFC100007F00808100410042D
:10353C001004080807F0000010041FFC1084108011
:10354C00108010800F00000007F0081810241024C1
:10355C00101C080A07F2000010041FFC11041100D3
:10356C0011C011300E0C000400000E1C110410844C
:10357C00108410441C3800001800100010041FFCAC
:10358C00100410001800000010001FF810040004B4
:10359C00000410041FF8100010001E0011E0001CA5
:1035AC00007013801C0010001FC0103C00E01F00B6
:1035BC0000E0103C1FC000001004180C163401C0B1
:1035CC0001C01634180C100410001C00130400FC6D
:1035DC0013041C00100000000804101C106410845C
:1035EC0013041C04101800000000000000007FFEF3
:1035FC004002400240020000000030000C0003803A
:10360C000060001C00030000000040024002400269
:10361C007FFE0000000000000000000020004000C1
:10362C0040004000200000000001000100010001EA
:10363C0000010001000100010000400040002000DA
:10364C00000000000000000000000098012401446C
:10365C000144014400FC000410001FFC008801041C
:10366C000104008800700000000000700088010454
:10367C0001040104008800000000007000880104AF
:10368C00010411081FFC0004000000F8014401446F
:10369C000144014400C800000000010401040FFCB7
:1036AC001104110411001800000000D60129012991
:1036BC00012901C90106000010041FFC008401004F
:1036CC000100010400FC000400000104190419FCB1
:1036DC0000040004000000000000000300010101D0
:1036EC00190119FE0000000010041FFC002400400A
:1036FC0001B4010C010400000000100410041FFCB4
:10370C000004000400000000010401FC010401009D
:10371C0001FC0104010000FC010401FC0084010017
:10372C000100010400FC0004000000F80104010485
:10373C000104010400F80000010101FF00850104EF
:10374C000104008800700000000000700088010473
:10375C000104010501FF00010104010401FC0084C6
:10376C000104010001800000000000CC01240124B0
:10377C00012401240198000000000100010007F859
:10378C000104010400000000010001F80004000421
:10379C000004010801FC0004010001800170000C10
:1037AC00001001600180010001F0010C003001C02B
:1037BC000030010C01F0010000000104018C0074C8
:1037CC000170018C01040000010101810171000EE6
:1037DC00001801600180010000000184010C01341B
:1037EC0001440184010C00000000000000000000F6
:1037FC0001003EFC400240020000000000000000FE
:10380C00FFFF0000000000000000400240023EFCF0
:10381C00010000000000000000006000800080003B
:10382C0040004000200020000000000000000000CC
:10383C00000000000000000000000000000000007C
:10384C00000000000000000000000000000000006C
:10385C0000000000000000000000000F80380FFE88
:10386C00380F80380000000000000000000000004D
:10387C000000000000000100000600000C000038F1
:10388C0000003100000600000C0000380000300081
:10389C00000000000000000061800067F807F9805C
:1038AC000061800061800061800061800067F80722
:1038BC00F98000618000000000000000000001C0E1
:1038CC00E003E0F00630080418081FFFFE040E08A1
:1038DC000787F00381E000000000000001F0000603
:1038EC000C00040408060C7001F9C0000E00003B2B
:1038FC00E000EC18070808040C180003E0000000B6
:10390C000001E00007F003F818041C08041708076E
:10391C00E1D003C0E00023B0003C08002008000008
:10392C001000000000000001000031000032000017
:10393C001C0000000000000000000000000000005F
:10394C00000000000000000000000000000000006B
:10395C0000000000000000007F0001FFC00780F0A5
:10396C000C001810000420000200000000000020D1
:10397C0000021000040C00180780F001FFC0007F4B
:10398C00000000000000000000000000000000002B
:10399C00000000004200006600006600003C0000D1
:1039AC00180003FFC0001800003C00006600006611
:1039BC0000004200000000000800000800000800A1
:1039CC0000080000080001FFC0000800000800000B
:1039DC0008000008000008000000000000010000C2
:1039EC003100003200001C0000000000000000004C
:1039FC0000000000000000000000000000000000BB
:103A0C00080000080000080000080000080000087A
:103A1C00000008000008000008000008000000007A
:103A2C0000000000000000003800003800003800E2
:103A3C00000000000000000000000000000000007A
:103A4C000000000000000000000600001C000070D8
:103A5C00000180000E0000380000C0000700001CB0
:103A6C000000300000000000000000007F8001FF1B
:103A7C00E003807006001804000804000806001813
:103A8C0003807001FFE0007F800000000000000058
:103A9C00000001000801000801000803FFF807FFFF
:103AAC00F8000008000008000008000000000000FA
:103ABC0000000001C03802C058040098040118042A
:103ACC000218040418061C1803F81801E0F800008A
:103ADC000000000000000001C0E003C0F00400087A
:103AEC0004080804080806180803F41801E7F00095
:103AFC0001E0000000000000000000000300000DC9
:103B0C000000110000610000810803010807FFF8A4
:103B1C000FFFF80001080001080000000000000081
:103B2C0000E007FCD006080806100806100806106E
:103B3C0008061838060FF00607C000000000000049
:103B4C00000000003F8001FFE003843002081804ED
:103B5C001008041008041008071810030FF00007D1
:103B6C00C000000000000000000003C000070000BF
:103B7C000600000600F80607F806180006E0000725
:103B8C00000006000000000000000001E1E003F767
:103B9C00F0063410041808041808040C08040C0867
:103BAC0006161803F3F001C1E0000000000000004D
:103BBC00F80003FC3003063804020804020804026F
:103BCC00080404100308F001FFC0007F000000008F
:103BDC0000000000000000000000000000000000D9
:103BEC0070380070380070380000000000000000D1
:103BFC0000000000000000000000000000000000B9
:103C0C0000000000301A00301C0000000000000012
:103C1C000000000000000000000000000000000890
:103C2C0000001400002200004100008080010040D0
:103C3C000200200400100800080000000000000032
:103C4C0021000021000021000021000021000021A2
:103C5C0000002100002100002100002100000000D4
:103C6C000000000000000800080400100200200101
:103C7C000040008080004100002200001400000879
:103C8C000000000000000003C00004C0000400009D
:103C9C00080038080F380808380810000C300007E6
:103CAC00E00003C000000000000000003F8000FFA7
:103CBC00E0038070020F1006708804C0880483082B
:103CCC00047F8802C09003012000FE400000080021
:103CDC0000180001F8003E0801C20007020007E2CC
:103CEC000000FE00001FC80001F8000038000008AA
:103CFC0004000807FFF807FFF80408080408080484
:103D0C00080804080806180803F41801E7F0000175
:103D1C00E0000000000000003F8001FFE003807025
:103D2C00020018040008040008040008040010062F
:103D3C0000200780C000000004000807FFF807FF00
:103D4C00F80400080400080400080400180200101D
:103D5C0003807001FFE0007F800000000400080772
:103D6C00FFF807FFF804080804080804080804080A
:103D7C0008043E080400080600180100600000005A
:103D8C0004000807FFF807FFF804080804080004FB
:103D9C000800040800043E00060000060000018034
:103DAC0000000000000000003F8001FFE003807075
:103DBC000600180400080402080402080203F007B5
:103DCC0083F000020000020004000807FFF807FF60
:103DDC00F8040808000800000800000800000800AB
:103DEC0004080807FFF807FFF804000800000000AB
:103DFC00000004000804000804000807FFF807FF8F
:103E0C00F80400080400080400080000000000008A
:103E1C00000000000006000007000001040001047F
:103E2C00000104000307FFFE07FFFC040000040070
:103E3C000004000004000807FFF807FFF8040C0852
:103E4C00001800003E0004C7800503C80600F804F3
:103E5C00003804001800000804000807FFF807FFEA
:103E6C00F804000800000800000800000800000822
:103E7C0000000800001800006000000004000807A3
:103E8C00FFF807800807FC00007FC00003F800075C
:103E9C00C000780007800807FFF807FFF804000847
:103EAC0004000807FFF807000803C00000E000004A
:103EBC003800001E000007000001C00400F007FFDE
:103ECC00F8040000000000007F8001FFE003807018
:103EDC00060018040008040008060018030030014E
:103EEC00FFE0007F8000000004000807FFF807FFD8
:103EFC00F80404080404000404000404000404008E
:103F0C00060C0003F80001F00000000000000000A7
:103F1C007F8001FFE00380700600880400880400A5
:103F2C00C806003C03003E01FFE6007F8400000051
:103F3C0004000807FFF807FFF80408080408000449
:103F4C000C00040F00040BC00610F003F03801E065
:103F5C000800000800000001E0F803F03006301003
:103F6C00041808041808040C08040C0802061802AB
:103F7C0007F00781E000000001800006000004004B
:103F8C000004000004000807FFF807FFF80400080D
:103F9C00040000040000060000018000040000077B
:103FAC00FFE007FFF0040018000008000008000004
:103FBC000800000800000804001007FFE0040000DF
:103FCC0004000006000007E00007FE00041FE000EC
:103FDC0001F80000380001E0043E0007C0000600B4
:103FEC000004000004000007E00007FFC0041FF8F5
:103FFC000007C007F80007FF80043FF80007C00463
:10400C00F80007000004000000000004000806008F
:10401C001807C07805F1C8003E00001F800463E853
:10402C000780F806001804000800000004000006D1
:10403C00000007800007E008047C08001FF8000758
:10404C00F800180804E0080700000600000400004F
:10405C000000000100080600380400F80403E8041E
:10406C000F08047C0805F00807C0080700180400B6
:10407C0060000000000000000000000000000000D4
:10408C000000003FFFFE2000022000022000022062
:10409C0000022000020000000000000000000800E8
:1040AC000007000000C0000038000006000001C03E
:1040BC0000003000000E00000100000000000000B5
:1040CC00000020000220000220000220000220003C
:1040DC00023FFFFE00000000000000000000000096
:1040EC00000000000000000000080000100000307C
:1040FC00000020000030000010000008000000004C
:10410C00000000000000010000010000010000019F
:10411C00000001000001000001000001000001008E
:10412C000001000001000001000000000000000080
:10413C000020000020000010000010000000000013
:10414C000000000000000000000000000000000063
:10415C0000F00019F8001B180022080026080024A3
:10416C0008002410003FF8001FF800000800001899
:10417C0000000004000007FFF80FFFF00018180003
:10418C001008002008002008003018001FF0000F55
:10419C00C00000000000000007C0001FF000183035
:1041AC00002008002008002008003C08001C10001B
:1041BC0000600000000000000000000007C0001FAD
:1041CC00F000381800200800200800200804101007
:1041DC0007FFF80FFFF000001000000000000000C7
:1041EC0000000007C0001FF000123000221800224F
:1041FC0008002208003208001E10000E20000000EB
:10420C0000000000200000200800200801FFF80337
:10421C00FFF80620080420080420080720000300EB
:10422C000000000000000000000E000E6E001FF3E6
:10423C000031B10020B10020B1003191001F1300FA
:10424C002E1E00200E00300000000004000807FFA6
:10425C00F80FFFF8001008002000002000002008D4
:10426C00003FF8001FF800000800000000000000EC
:10427C000000002008002008002008063FF8063F38
:10428C00F800000800000800000800000000000012
:10429C0000000000000000000300000300200100EB
:1042AC002001002003063FFE063FFC00000000003A
:1042BC000000000000000004000807FFF80FFFF8E2
:1042CC00000188000300002FC00038F800203800DF
:1042DC00200800000800000000000000000004009E
:1042EC000804000804000807FFF80FFFF800000896
:1042FC00000008000008000000000000002008007A
:10430C003FF8003FF8001008002000003FF8003F85
:10431C00F8001008002000003FF8003FF8000008EB
:10432C00000000002008003FF8003FF800100800D3
:10433C001000002000002008003FF8001FF80000CB
:10434C00080000000000000007C0000FF00018304B
:10435C000030080020080020080030080018300049
:10436C000FF00007C0000000000000002001003F1B
:10437C00FF003FFF0010110020090020080020085A
:10438C00003038001FF0000FC000000000000000DB
:10439C0007C0001FF000381800200800200800207B
:1043AC0009001011001FFF003FFF0000010000007A
:1043BC00002008002008002008003FF8003FF8000B
:1043CC000808001008002008002000003000003011
:1043DC0000000000000000000000000C78001E1817
:1043EC0000330800230800210800218800219800D0
:1043FC0030F00038600000000000000020000020B9
:10440C000000200000FFF003FFF800200800200847
:10441C000020080000300000000000000000000038
:10442C002000003FF0007FF800001800000800009A
:10443C0008002010003FF8007FF000001000000082
:10444C00000000002000003000003C00003F800015
:10445C0023F0000078000070002380003C00003046
:10446C0000002000002000003C00003FE00023F88A
:10447C000000E0002700003E00003FE00021F800B3
:10448C0001E0003E00002000000000002008002099
:10449C0008003838003E680027800003C8002CF85C
:1044AC000038380020180020080000000000000030
:1044BC002000003003003C01003F830023EC00008F
:1044CC0070002380003C0000200000200000000051
:1044DC000000000000000038080020380020F80020
:1044EC0023E8002F88003E08003808002018000040
:1044FC007000000000000000000000000000000040
:10450C000000000008000014001FF7FC300006201B
:10451C00000200000000000000000000000000008D
:10452C0000000000000000000000FFFFFF00000082
:10453C00000000000000000000000000000000006F
:10454C0000002000023000061FF7FC0014000008D9
:10455C00000000000000000000000000000000004F
:10456C000000001800006000004000004000002027
:10457C0000001000000800000400000400000C0003
:10458C00001000000200420033FE0004000841004D
:10459C00493F49224F227922492249224F3F41006B
:1045AC000100000020002000249F249224922492D9
:1045BC00A49264922492249224922492249F200008
:1045CC002000000002000202420433F800040A0A30
:1045DC00723213C21202FE0213F2120A120A023AC9
:1045EC000002000008420841FFFE0880000041085C
:1045FC00614852484A4845FF4A48524861480108B8
:10460C0001000000080108068FF86902090109FE83
:10461C0008011406E4F8240427FE2422242227226D
:10462C002002000013101D18F11017FF112011208B
:10463C000200124012D01748FA44124B125012606A
:10464C00020000000002004200227F1A490249FECB
:10465C0049024902490249FE49027F0A00120062DE
:10466C0000020000020402084210426042004202B2
:10467C00420143FE420042004200424042200210EE
:10468C00020C000000007FFF4002480249FA491268
:10469C0049127F124912491249FA480240027FFF1F
:1046AC00000000000080010006001FFFE000014038
:1046BC000640384008400840FFFF084008400840CA
:1046CC0000400000010001012102210421187FE0BB
:1046DC004100C10041000100FFFF01000100010089
:1046EC000100000004440CE63544C6480C480002A6
:1046FC00400C40F17F0140C2403446085A3463C23A
:10470C0000010000008007000000FFFF0800040803
:10471C00103011C11E22F0C4101817E010181046EA
:10472C0011810000040108091009EF922AB22AEA4B
:10473C002AA42AA42AA42AAA2AB22FA22001200140
:10474C00000100000000003E3E02020202020202D2
:10475C000202FFFE02020202020202023F02003FBC
:10476C0000000000000100067FF8400040004000FF
:10477C00400040004000400040004000400040002D
:10478C004000000000017FFE04800480FCFF040157
:10479C0000063FF82401278224644418C46447822D
:1047AC0000010000000808100820084008900B10B9
:1047BC000C10FFFF0C100B1008900840082008107C
:1047CC00000800000080010006001FFFE000000050
:1047DC002000249F2492A492649224922492249FD9
:1047EC00200000000002000C00003FC02A9C2A821E
:1047FC006A82AAA22A9A2A822A823FCE000000103C
:10480C00000C00000000004244444CC854D06542E7
:10481C004541467E844088409050814880C4006267
:10482C000000000004440CE63544C6480C48000166
:10483C001102130C15F09900710011FC15021302F2
:10484C00118E00000002000400183FE02200223FFD
:10485C002222A222622222222222222222223E3F33
:10486C00000000000208223C23C822082228221D36
:10487C000202080C0870FF800802080108020FFCF5
:10488C0000000000000000000FF0082008200820A5
:10489C000820FFFF08200820082008200FF0000047
:1048AC00000000000200420033FE00040008220059
:1048BC002AFF2AA82AA8FEA82AAA2AA92AFE220088
:1048CC00020000002410246025807FFFC480446017
:1048DC00000047FF34900490FC900492149167FE02
:1048EC000000000010802090C4904490649854966E
:1048FC0044905F902492C49144BE64905490409034
:10490C00408000000000000100067FF804400440D5
:10491C00044004400440FC40047F040004000400F4
:10492C000000000010091109131295245948119820
:10493C0011241642100100001FF000020001FFFEBE
:10494C000000000000400880110023FFCC00024052
:10495C001250124C1240FE42124113FE12401240F1
:10496C0002400000082008C00B00FFFF090008C12E
:10497C0000067FF84000400040007FFC000200026F
:10498C00001E000000003FFC2108210821083FFC0C
:10499C00000008000880086008020801FFFE0800FB
:1049AC000800000000001FFF8000600000000FF8EE
:1049BC004888488848884FF84000400240017FFEF4
:1049CC0000000000008100810882888268840888C9
:1049DC0008B00FC008B008882884C88208820081FB
:1049EC0000810000010041014102410C7FF04100B7
:1049FC0041004100410041007FFF41004100410066
:104A0C00010000000002000C3FF020022202218273
:104A1C002072A402630220C6200A203220C2270280
:104A2C0020020000084008420881FFFE0900040033
:104A3C001901112111D297147108111411E21501E9
:104A4C001900000002800C80F7FE2484248A016483
:104A5C00271839E408222AA22AA2FFFA2AA23EA287
:104A6C000822000020212021202223E2F2242228E7
:104A7C0022302FE022302228F22423E2202220218F
:104A8C00202100001001100110021C0213041088D8
:104A9C00905070201050108813041C02100210014A
:104AAC001001000010002000C3FF4800640051FCFE
:104ABC00452455242524C5FC4400640157FF4000BF
:104ACC004000000014002700DD09552A5F6855AA34
:104ADC005F39452E08481088ED0A22193D0C2080BC
:104AEC00208000000080010006001FFFE008081075
:104AFC00082008D00B10FFFF0B1008D0082008105E
:104B0C00000800000100020104020904111861E010
:104B1C00010001020101C10231FC08000400020085
:104B2C0001000000048008803480E7FE248424887F
:104B3C0000000FE008400840FFFF084008400FE06D
:104B4C00000000002410246025807FFFC480446096
:104B5C00008103011C020002FFE40008103008C0B1
:104B6C0006000000101013181D10F11017FF112073
:104B7C00112102020C0CF07013801070140C18022E
:104B8C00000100002040218027FE3A08220823FC67
:104B9C0000014FF1492A49247FFA492249214FE16A
:104BAC0040010000010006001FFFE00020012781EA
:104BBC0024A224942488FFF4248224822481278133
:104BCC0020010000100033FF52489248124A52490B
:104BDC0033FE18000000FE7E1111111121214141FC
:104BEC0007070000082008220841FFFE0880090082
:104BFC0020002000200220013FFE20002000200089
:104C0C002000000000001FFF8000441004204440DE
:104C1C00448845045FF844004400440240017FFE90
:104C2C00000000000080010006001FFFE004008867
:104C3C007C9044A044C047FF44C044A07C900088B2
:104C4C000004000000007E0042FF449254928892BF
:104C5C00849202FE449278924092449242FF7C00ED
:104C6C00000000003FFC248824883FFC00000492D4
:104C7C0027F2249224927FFE4492C49247F204922B
:104C8C000080000000003FFC2488248824883FFC1E
:104C9C0000007FFF4482448447E0449844847C8233
:104CAC00008F0000010006001FFFE00020042646D4
:104CBC003A4423F82648224800001FF20001FFFE68
:104CCC000000000002000200420033FE0004020853
:104CDC00020002000200FFFF0200020002000200BC
:104CEC000200000002000202420433F80004000239
:104CFC00FFFA92129222930292829242FEA2011A1F
:104D0C00000200002040218027FE3A08220823FCE4
:104D1C000401080617F8E490249027FC2C92349197
:104D2C0007FE00000801300222042278220422022D
:104D3C00A20263FE222222222222222222222802E4
:104D4C0030020000401040187FF0491049104920F3
:104D5C007FFF402060213F0220E4201820E43F0226
:104D6C000001000008200620403E30C00300000077
:104D7C0047FF34900490FC900492149167FE00005D
:104D8C00000000001000157E95445544157E10005F
:104D9C004100493F4F227922492249224F3F41008D
:104DAC00010000000202420433F80004F042AA4A57
:104DBC00AA52EFE21A420242F242AFE2AA52EA4A85
:104DCC0018420000084008420881FFFE09000A084A
:104DDC007108552855A875685F3F756855A8552802
:104DEC0071080000101017D01550FFFF155017D088
:104DFC0040005F5855545550FFD25551557E5F5069
:104E0C0040D000007DB656D055B6540055B656D09D
:104E1C007DB600014FFA494C59486948494C4FFA44
:104E2C0040010000044E0CC0354CC64004CC186246
:104E3C00400C40F17F0140C2403446085A3463C2F2
:104E4C000001000000400880110023FFCC00080185
:104E5C001009EF922AEA2AA42AA42AAA2AB22FA17C
:104E6C002001000000017FFE400053FE4E0042F086
:104E7C007E9042F4C6025BFC42014DC6743847C6B4
:104E8C004401000004420CCC3540C64C18C0006DE7
:104E9C001102130C15F09900710011FC150213028C
:104EAC00118E0000000400183FE0227EA2446244F0
:104EBC0022443E7E01010E02F1CC103010CC1F02B8
:104ECC0010010000100257D355525552FFFE955455
:104EDC00955497D51006080CFFF0080208010FFE38
:104EEC00000000001000157E95445544157E1000FE
:104EFC0022002AFF2AA82AA8FEA82AAA2AA92AFE42
:104F0C0022000000082008C00B00FFFF09000081F0
:104F1C00368EDBF036880084FF8100F2368CDBB2F3
:104F2C00368F000000003FFC2108210821083FFCBF
:104F3C000200124012501248FE42124113FE12405F
:104F4C000240000000007FFF5400540055F87D50D3
:104F5C00015001507D5055F8540254017FFE000061
:104F6C00000000000000FFFFA800AB58ADC9F94AD3
:104F7C0002FC0000037FFDC8A948AADAA801FFFEC5
:104F8C000000000000007FFF5400542255247DF8DF
:104F9C00012001207DFE5520542254017FFE00008B
:104FAC00000000000002000C3FF1220624002FF04C
:104FBC00300EA4016FF13AAD2AA12FE13AA72AA82D
:104FCC002826000008A23492C7FC24941002216405
:104FDC00271839E408222AA22AA2FFFA2AA23EA202
:104FEC000822000010002FFFCA804A806ABE5FAA08
:104FFC00402A502A202ACFAA4ABE6A805A814FFFE3
:10500C004000000006007DFF55505D5245517DFE6D
:10501C0006027D72555AFD565552FD56555A7D72F3
:10502C000002000004A2089B3482C7FC249410A444
:10503C0008024BEA6AAA5AAACBFE5AAA6AAA4BEAF7
:10504C0008020000101017D01550FFFF155017D094
:10505C00101102020C0CF07013801070140C18025A
:10506C000001000000007FFF5400540054887C9025
:10507C0000A400C203FC7C805480548254017FFE47
:10508C00000000001000157E954475441544157EF3
:10509C001200020002000200FFFF020002000200E8
:1050AC0002000000208027FC3A08220823FC008024
:1050BC00310027FF3C92E49234922FFE24922492EA
:1050CC0034920000D3EFD1D4D1A1D4F1D0FDD7AA22
:1050DC00CFD4CABEB9CCBCFEC9FDBCB6BBD6B8B425
:1050EC00B3F6B3A7B0E6B1BED0C5CFA2CFB5CDB3A2
:1050FC00C6F4B6AFD6D0C7EBC9D4B5C8C6ACBFCC16
:10510C00B4FDBBFACAB1BCE4B9D8BFAAD3A6B0B43B
:10511C00BCFCD3A2CEC4BCF2B7B1CCE5B7D6D6D3C7
:10512C00C3EBC8EDD3B2CAB9C4DCB4F2B1D5B1A3E8
:10513C00C1F4CBAFC3DFB5B9BCC6CDCBC8B7B6A82D
:10514C00C8A1CFFBD55ADF7893F1DE44EF40BC8980
:10515C008FCD8F53BD7986A284D3D5889943957210
:10516C00E967EA50E95F91AAE649BA86F377E78ADC
:10517C00DC9BE95DD38BB45F00000000CCCAFFFF61
:10518C00F4CAFFFF1CCBFFFF34CBFFFF4ECBFFFF5E
:10519C005ECBFFFF86CBFFFFAECBFFFFC6CBFFFF87
:1051AC00E0CBFFFF0000000000000000000000004A
:1051BC0000000000000000000000000000000000E3
:1051CC0000000000000000000000000000000000D3
:1051DC0000000000000000000000000000000000C3
:1051EC0000000000000000000000000000000000B3
:1051FC0000000000000000000000000000000000A3
:0C520C0000000000040309043C400020E6
:105218000907000000000000000000000000000076
:105228000000000000000000000000000000000076
:105238000000000000000000000000000000000066
:105248000000000000000000000000000000000056
:10525800D0510000F0510000B051000000000000E3
:105268000000000000000000000000000000000036
:105278000000000000000000000000000000000026
:105288000000000000000000000000000000000016
:105298000000000000000000000000000000000006
:1052A80000000000000000000000000000000000F6
:0852B800D05000003C40002032
:00000001FF
