:020000040800F2
:10000000D04C0020B9020008EF3200083B2C000859
:10001000ED320008F1050008BD3F000800000000B7
:10002000000000000000000000000000F5010008D2
:10003000B10600080000000051020008D536000893
:10004000D3020008D3020008D3020008D30200083C
:10005000D3020008D3020008D3020008D30200082C
:10006000D3020008D3020008D3020008D30200081C
:10007000D3020008D3020008D3020008D30200080C
:10008000D3020008D3020008B5040008D302000818
:10009000D3020008D3020008D3020008D3020008EC
:1000A000D3020008D3020008D3020008D3020008DC
:1000B000D3020008D3020008D3020008D3020008CC
:1000C000D3020008D3020008D3020008D3020008BC
:1000D000D3020008B13F0008D3020008D302000891
:1000E000D3020008D3020008D3020008D30200089C
:1000F000D3020008D3020008D3020008D30200088C
:10010000D3020008D3020008D3020008D30200087B
:10011000D3020008D3020008D3020008B137000858
:10012000F5050008D302000801060008D302000804
:10013000D3020008000000000000000000000000E2
:10014000000000000000000000000000D3020008D2
:10015000D3020008D3020008D3020008D30200082B
:10016000D3020008D3020008D3020008D30200081B
:10017000D3020008D302000800000000D3020008E8
:10018000D3020008D3020008D3020008D3020008FB
:10019000D3020008D302000800000000D3020008C8
:1001A000000000000000000000000000D302000872
:1001B000D3020008D3020008000000000000000085
:1001C000000000000000000000000000000000002F
:1001D000000000000000000000000000D302000842
:1001E000DFF80CD000F00CF900480047AD430008E0
:1001F000D04C00202D4B19680868B0E8F04F80F310
:100200000988BFF36F8F4FF0000080F311887047AB
:100210000000000008480068006880F308884FF07C
:10022000000080F3148862B661B6BFF34F8FBFF34E
:100230006F8F00DF00BF00BF08ED00E0DFF80C00AB
:10024000016841F470010160704700BF88ED00E073
:10025000EFF30980BFF36F8F144B1A681EF0100F75
:1002600008BF20ED108A20E9F04F106009B44FF06C
:10027000500072B680F31188BFF34F8FBFF36F8FBA
:1002800062B604F0B5FD4FF0000080F3118809BCA0
:1002900019680868B0E8F04F1EF0100F08BFB0EC06
:1002A000108A80F30988BFF36F8F70472C000020FD
:1002B000EFF3058070470000064880470648004776
:1002C000FEE7FEE7FEE7FEE7FEE7FEE7FEE7FEE706
:1002D000FEE7FEE7A1370008E10100082DE9F05F25
:1002E0000546002092469B468846064681464024A5
:1002F0001BE0284641464746224600F070F8534628
:100300005A46C01A914110D311461846224600F0B1
:1003100057F82D1A67EB01084F46224601200021AD
:1003200000F04EF817EB00094E41201EA4F1010425
:10033000DFDC484631462A464346BDE8F09F40EAA6
:1003400001039B0703D009E008C9121F08C0042A53
:10035000FAD203E011F8013B00F8013B521EF9D23A
:100360007047D2B201E000F8012B491EFBD2704762
:100370000022F6E710B513460A4604461946FFF771
:10038000F0FF204610BD421C10F8011B0029FBD1D4
:10039000801A704730B50B46014600202022012408
:1003A00009E021FA02F59D4205D303FA02F5491B43
:1003B00004FA02F52844151EA2F10102F1DC30BD59
:1003C000202A04DB203A00FA02F100207047914015
:1003D000C2F1200320FA03F3194390407047202A0A
:1003E00004DB203A21FA02F00021704721FA02F3DF
:1003F000D040C2F1200291400843194670470000E6
:10040000064C074D06E0E06840F0010394E8070061
:1004100098471034AC42F6D3FFF7E6FE8878000820
:10042000A878000810B50146806B026C12F0500FDE
:1004300005D0026CD20626D500F027FA10BD016C5B
:1004400041F40071016401688A6812F0405F17D1BD
:100450008269AAB9CA6A12F4700F02D08A6852057A
:100460000ED44A6822F020024A60016C21F48071A7
:100470000164016CC90403D4016C41F00101016401
:1004800000F0F8F910BD806BC26C0846BDE8104062
:10049000104710B5806B40210164416C41F00401AC
:1004A000416400F0F2F910BD10B5806B00F0ECF97A
:1004B00010BD0000014800F0E9B90000540500201B
:1004C000484910B5D1F8042322F44032C1F804237E
:1004D000D1F8042343681A43C1F8042301684A6829
:1004E00022F480724A6001684A68036942EA032282
:1004F0004A6001684A6822F040724A6001684A68AE
:1005000083681A434A6001688A6822F400628A603C
:1005100001688A68C3681A438A60816A6FF07062F2
:10052000D14201688A6822F070628A6001688A6834
:100530000CD0836A1A438A6001688A6822F04052AC
:100540008A6001688A68C36A1A4301E022F0405257
:100550008A6001688A6822F002028A6001688A68FB
:10056000836942EA43028A6090F8201000290168FA
:100570004A680FD042F400624A6001684A6822F477
:1005800060424A6001684A68436A174C04EB43338F
:100590001A4301E022F400624A600168CA6A22F448
:1005A0007002CA620168CA6A838B104C04EB035361
:1005B0001A43CA6201688A6822F400728A6001687C
:1005C0008A6890F8303042EA43228A6001688A687B
:1005D00022F480628A6001688A68406942EA802069
:1005E000886010BD0020014000E0FFFF0000F0FF28
:1005F000FEE70000014800F055BB00009C0500200C
:10060000014800F04FBB00003007002001681823AC
:10061000CAB2103AB2FBF3F2054B6FF30901032A99
:100620009B5CC36500D9091D8165084670470000C1
:100630008C770008014610B500208B694FF0C0741C
:100640008A6A53B1B3F5005F15D072B1012A0CD09C
:10065000022A0AD0032A09D104E01AB1012A06D0DD
:10066000022A03D1C96AC90100D5012010BDC96A97
:10067000A142FAD010BD002AF7D0012AF2D0022AF6
:10068000F3D0032AF3D010BD30B50468256825F4F3
:1006900080252560046863608368402B036803D06D
:1006A00099600068C26030BD9A600068C16030BD6A
:1006B000704772B6FEE77047F8B50023009390F8D4
:1006C0003C20012A1ED0012280F83C2007270A681E
:1006D000644DFE07092A21D9B2421FD00468D4F81C
:1006E0000CC00A3A02EB420297402CEA070CC4F80D
:1006F0000CC00A68AA4207D10268D4680F7A44EA9B
:10070000076409E00220F8BD0A3A8C6802EB420255
:1007100094400268D7683C43D46012E00468D4F87F
:1007200010C002EB420297402CEA070CC4F810C03C
:100730000A788C6802EB42029440026817693C43D5
:1007400014614A681F27072A16D20468D4F834C0F7
:10075000521E02EB820297402CEA070CC4F834C008
:100760000A8894B20A79521E02EB8202944002680F
:10077000576B3C4354632DE004680D2A15D2D4F81E
:1007800030C0D21F02EB820297402CEA070CC4F85B
:1007900030C00A8894B20A79D21F02EB82029440D8
:1007A0000268176B3C43146314E0D4F82CC00D3A74
:1007B00002EB820297402CEA070CC4F82CC00A888E
:1007C00094B20A790D3A02EB820294400268D76A29
:1007D0003C43D462244C0268A24208D10A68B24267
:1007E00005D1D4F8042322F44002C4F8042302689B
:1007F000A2420ED10A68122A0BD1D4F8042322F4A3
:100800000002C4F80423D4F8042342F48002C4F89C
:1008100004230268A24220D10A68AA4201D0112A08
:100820001BD1D4F8042322F48002C4F80423D4F8A2
:10083000042342F40002C4F804230968A9420CD13D
:100840000A490B4A0968B1FBF2F101EB8101490049
:1008500000E0491E00910029FBD180F83C300020C7
:10086000F8BD000012000010002001402800002008
:1008700040420F0003480178002901D10121017095
:1008800070470000040000207047704770B50446B0
:1008900000680668456816F0020F05F020022AD0AD
:1008A0004AB3216CC90603D4216C41F40071216460
:1008B000816811F0405F17D1A169A9B9C16A11F42B
:1008C000700F02D0816849050ED4416821F02001E3
:1008D0004160206C20F480702064206CC00403D43C
:1008E000206C40F0010020642046FFF7C3FF216820
:1008F0006FF01200086016F0040F05F0800132D08E
:1009000089B3206CC00603D4206C40F400502064EE
:100910002068816811F4401F1ED1816B11F4401FC3
:1009200002D08168490517D44168490514D481680B
:1009300011F0405F10D1A16971B9416821F08001C7
:100940004160206C20F480502064206CC00503D4EA
:10095000206C40F0010020642046FFF7ACFE2168C7
:100960006FF00C00086016F0010F05F040010FD089
:1009700071B120680068C0070AD0206C40F4803054
:100980002064204600F043F821686FF00100086001
:1009900016F0200F05F080610ED000290CD0606C9D
:1009A00040F00200606420686FF02005056020467A
:1009B000FFF76BFF2068056070BD70B504004FF055
:1009C000000603D0206C002510B107E0012070BDA7
:1009D000204600F01DF8656484F83C50206CC00689
:1009E00010D4206C20F4885040F00200206420468F
:1009F000FFF766FD6564206C20F0020040F0010006
:100A0000206400E0012684F83C50304670BD7047F9
:100A100070B586B0064614216846FFF7A9FC214947
:100A2000306888423CD12048016841F480710160FF
:100A3000006800F4807005901B481438016841F08C
:100A40000101016000680025694600F00100059081
:100A5000022000900320CDE90105144800F0AAFA15
:100A6000144C1348C4E900050015A560C4E90350FF
:100A7000400060618000A0614011C4E90705204684
:100A8000656200F0DFF908B1FFF713FE0022B463DE
:100A900012201146A66300F04BFC122000F03AFC35
:100AA00006B070BD00200140443802400000024002
:100AB000106402409C050020F8B500230446009312
:100AC00090F83C00012807D0012084F83C00206801
:100AD0008568ED0702D011E00220F8BD856845F079
:100AE000010585603A483B4D0068B0FBF5F000EB2E
:100AF000400000E0401E00900028FBD1206885687F
:100B0000ED075BD0256C40F20166B54345F4807576
:100B100025644068400505D5206C20F4005040F461
:100B200080502064206CC00404D5606C20F0060066
:100B3000606400E0636484F83C30A36B2648D863AB
:100B4000A36B26481864A36B2548D8646FF0220075
:100B5000236818602068436843F08063436020681E
:100B6000836843F48073836020681346A56B0A464C
:100B700000F14C01284600F0CFF91A49D1F80403DE
:100B8000C006206811D0884207D1826812F0405F09
:100B900003D1826842F080428260D1F80403C0062B
:100BA00014D411492068884210D1816811F0405F47
:100BB0000CD1816841F08041816007E0206C40F0F9
:100BC00010002064606C40F0010060640020F8BDFB
:100BD0002800002040420F0025040008A904000856
:100BE0009304000800200140002201402DE9F0415B
:100BF000876D044600F0D4FA054694F835000026C7
:100C0000022806D080206065012084F83460BDE8A9
:100C1000F0812068016821F01601016020684169B7
:100C200021F080014161206C08B9A06C20B12068DE
:100C3000016821F0080101602068016821F00101CC
:100C400001600CE000F0ACFA401B052807D9202019
:100C50006065032084F8350084F83460D7E72068A5
:100C60000068C007EED194F85C103F208840B8605F
:100C7000012084F83500002084F83460C7E790F83C
:100C80003510022903D080214165012070470521DC
:100C900080F835100068016821F001010160002032
:100CA000704700002DE9F843044665484FF00009FD
:100CB000CDF800904FF41651A56D0068B0FBF1F728
:100CC0002E68082194F85C2001FA02F030420FD01F
:100CD0002068026852070BD5026822F00402026005
:100CE00094F85C008140A960606D40F0010060658F
:100CF00094F85C104FF0010808FA01F0304208D077
:100D000021684969090604D5A860606D40F00200B9
:100D1000606594F85C1004208840304208D0216857
:100D20000968890704D5A860606D40F0040060651B
:100D300094F85C1010208840304218D0216809686F
:100D4000090714D5A86020680168490304D5006824
:100D5000000308D5A16C07E00168C90503D4016848
:100D600021F008010160216C09B12046884794F800
:100D70005C1020208840304231D021680968C906C3
:100D80002DD5A86094F8350005282068016806D0A4
:100D9000490347D5006800031DD4616C1CE021F0B5
:100DA000160101602068416921F080014161206CD9
:100DB00008B9A06C20B12068016821F00801016029
:100DC00094F85C103F208840A86084F8358084F84F
:100DD0003490216D1FE0E16B09B120468847606DBA
:100DE00000282BD0606DC00714D0052084F8350092
:100DF0002068016821F0010101600098401C00900A
:100E0000B84203D820680068C007F6D184F835805E
:100E100084F83490E16C002910D001B02046BDE880
:100E2000F04308470168C905D5D4016821F01001D5
:100E3000016084F8358084F83490CCE7BDE8F8830D
:100E4000280000202DE9F041044600F0A9F90546EC
:100E50005CB1022084F83500002684F834602068F4
:100E6000016821F0010101600DE00120BDE8F08181
:100E700000F096F9401B052805D920206065032065
:100E800084F83500F2E720680068C007F0D12168D7
:100E90000A6820480240D4E901031843D4E9033525
:100EA0002B43184363691843A3691843E369184344
:100EB000236A18431043626A042A03D1D4E90B233E
:100EC0001A4310430860206840690127656A20F0D2
:100ED000070128460D4304280CD1A06A0543E06AA7
:100EE00040B12046FFF7A6FB20B14020606584F8A2
:100EF0003570BAE7206845612046FFF787FB94F814
:100F00005C203F2191408160666584F83570002047
:100F1000ACE700003F8010E02DE9F041866D04460B
:100F200090F83400002501280DD0012084F8340009
:100F300094F835700020012F07D0022584F8340082
:100F40002846BDE8F0810220FBE7022784F83570CF
:100F500060652046FFF798FB94F85C103F208840BE
:100F6000B0602068016841F01601016020684169A5
:100F700041F080014161206C20B12068016841F09E
:100F8000080101602068016841F001010160D7E7B4
:100F900070B5044600F004F90546601C02D0044810
:100FA0000078044400F0FCF8401BA042FAD370BD66
:100FB0001C0000202DE9F84FDFF89C910022032748
:100FC0004FF00F0CA9F1040B09F1040AABF1040E68
:100FD0000B68012595402B40AB426ED10C7904F093
:100FE0000304012C01D0022C15D18668540007FAA5
:100FF00004F826EA0806D1F80C8008FA04F848EA52
:101000000608C0F808804468AC430D79C5F30015A4
:101010009540254345600C79E443A40708D0C56892
:10102000540007FA04F6B5438E68A6402E43C66006
:101030000C7904F00304022C11D1D40800EB8406CF
:10104000356A5407E40E0CFA04F825EA0805D1F8CD
:10105000108008FA04F848EA0508C6F820800568F8
:10106000540007FA04F6B5430E7906F00306A640CD
:101070002E4306604C6814F4403F66D0374C256818
:1010800045F480452560246822F0030504F480447B
:101090000094334C05EB0408D8F808589407260F41
:1010A0000CFA06F4A5432F4CA04201D1002424E001
:1010B0002D4CA04202D101241FE046E02B4CA0425F
:1010C00001D1022419E02A4CA04201D1032414E0EA
:1010D000284CA04201D104240FE0274CA04201D1AA
:1010E00005240AE0254CA04201D1062405E0244C49
:1010F000A04201D1072400E00824B4402C43C8F8E2
:101100000848D9F800404D464E689C43F60200D589
:101110001C432C60DAF8004055464E689C43B602EA
:1011200000D51C432C60DBF800405D464E689C43B4
:10113000B60300D51C432C60DEF8004075464E68AF
:101140009C43F60300D51C432C60521C102AFFF46C
:101150003FAFBDE8F88F0000083C01404438024032
:10116000003001400000024000040240000802403C
:10117000000C02400010024000140240001802401F
:10118000001C0240426921EA02030A4043EA02418C
:10119000816170470AB1816170470904FBE7000073
:1011A00001488068704700001C00002002488168E8
:1011B00002781144816070471C000020032010B5A4
:1011C00000F0D6F80F2000F005F800F087F80020B6
:1011D00010BD000000B500220146372087B000F0A6
:1011E000A7F8372000F096F81348016841F0200175
:1011F0000160006805A900F020000690684600F034
:10120000C3FB00F0E1FB0D4940000D4AB0FBF1F1DA
:101210000C48026040F2E732491E41600021C0E9FB
:101220000321816000F09CFF10B1012007B000BDD8
:10123000044800F0D9FFF9E74038024040420F006F
:101240000014004090070020134A41781160111DDE
:1012500003780A1DE3B143680B60017BC37A090779
:1012600041EA0361837A41EAC341437B41EA834116
:10127000837B41EA4341C37B41EA0341437A41EA2C
:101280000321037A007841EA43010143116070476A
:10129000002008601060704798ED00E0BFF35F8F9A
:1012A0000448016821F48031016002490020703156
:1012B0000860704724ED00E0074940F00100086035
:1012C00005487038016841F480310160BFF34F8FE9
:1012D000BFF36F8F7047000094ED00E00C4882B0C0
:1012E000016841F080510160006800F0805000907A
:1012F0000748001D016841F4804101600068002238
:101300000F2100F480400090901E02B000F010B851
:1013100040380240002809DB012100F01F02914003
:101320004009800000F1E020C0F800117047000083
:101330000E4BF0B41B68C3F30223C3F10704042C63
:1013400000D904241D1D072D01D2002300E0DB1E5F
:10135000012606FA04F56D1E0D409D409E40761E46
:10136000164045EA0601F0BC02F04EBE0CED00E06E
:10137000064A00F0070110684FF6FF03184040EAE4
:101380000120034908431060704700000CED00E0A5
:101390000000FA051848F8B5016841F08051016075
:1013A0000068164D00F080500090286840F48030AE
:1013B0002860FFF7F5FE4FF47A76044604E0FFF765
:1013C000EFFE001BB0420FD86868C003F7D528684D
:1013D00040F400302860FFF7E3FE044606E0FFF724
:1013E000DFFE001BB04201D90320F8BD686880030E
:1013F000F5D50020F8BD00004038024000700040E4
:101400002DE9F84F044600780026DFF808A4354699
:10141000C0070ED0DAF8001021F40001CAF800105D
:10142000DAF80010E26A1143CAF80010E06A00B965
:1014300001262068F84F00030ED53868616B20F450
:10144000401008433860606BB0F5801F01D010B1C8
:1014500002E0012600E001252068C0020ED53868B0
:10146000A16B20F4400008433860A06BB0F5800FFA
:1014700001D010B102E0012600E0012520788006AD
:1014800066D5E4483830016841F080510160006859
:10149000DFF8889300F080500090D9F8001041F4F4
:1014A0008071C9F80010FFF77BFE804605E0FFF76A
:1014B00077FEA0EB080064287ED8D9F80000C005AC
:1014C000F5D5DFF85493A9F11C09D9F8000010F400
:1014D00040702AD0218D01F44071814225D0D9F885
:1014E0000010D9F8002021F4407142F48032C9F88C
:1014F0000020D9F8002022F48032C9F80020C9F871
:101500000010D9F80000C0070FD0FFF749FE804651
:1015100041F2883B05E0FFF743FEA0EB0801594587
:10152000CAD8D9F800008007F5D5A06AC0F3012118
:1015300003297DD0DAF8001021F4F811CAF8001060
:10154000D9F80010228DC2F30B021143C9F8001024
:101550002078C00607D5386820F080703860386879
:10156000216B0843386020884104AD4805D50168E7
:10157000E26D21F44031114301602188090405D551
:101580000168226E21F44021114301602168C903E2
:1015900005D50168626E21F4401111430160217884
:1015A000490605D50168E26B21F003011143016092
:1015B0002178090607D500E008E10168226C21F0D6
:1015C0000C01114301602188C90505D50168626CD1
:1015D00021F03001114301602188890505D501689A
:1015E000A26C21F0C001114301602188490505D595
:1015F0000168E26C21F44071114301602188090502
:1016000005D50168226D21F44061114301602188F4
:10161000C90405D50168626D21F440511143016090
:101620002188890407D50168A26D21F4404100E0BA
:1016300031E01143016021684FF00069890209D54A
:101640000168626F21F0006111430160616F4945DB
:1016500000D101252168490305D50168E26E21F01A
:101660004071114301602168090205D50168A26F2C
:1016700021F08051114301602168490105D50168BD
:10168000E26F21F0005111430160DFF88881A8F179
:1016900008086EB909E0DAF80020624B22F4F8126B
:1016A00018400243CAF800204AE72068800161D54B
:1016B000D8F8001021F08061C8F80010FFF770FD25
:1016C000064604E0FFF76CFD801B64287ED8D8F83E
:1016D00000000001F6D420785349C0070CD0E06A1E
:1016E00050B908686268C0F30360920142EA006082
:1016F000227A40EA027008602068020303D5626B18
:10170000B2F5801F05D0C00215D5A06BB0F5800FD3
:1017100011D108686268237BC0F30270920142EA2B
:10172000036242EA007008603868E26920F01F0036
:10173000521E104338602068800108D56068227B03
:10174000800140EA0260227A40EA02700860D8F81C
:10175000001041F08061C8F80010FFF721FD064637
:1017600004E0FFF71DFD801B642866D8D8F8000050
:101770000001F6D55DB3D8F80000454620F0805052
:10178000C8F80000FFF70CFD064604E0FFF708FD6F
:10179000801B642851D82868C0438000F6D5206893
:1017A0002249020301D5626B1AB1C00219D5A06BA0
:1017B000B8B908682269C0F30140920142EA0040CA
:1017C000227D40EA02600860386801E035E03BE0D5
:1017D000226A6FF0FF0320F4F85003EB022210435B
:1017E0003860206880020DD5606F48450AD10868CE
:1017F0002269238BC0F30360920142EA034242EA6A
:1018000000600860286840F080502860FFF7C8FC3E
:10181000044615E0083802408C3802400070004051
:1018200090380240FFFCFF0F8438024088380240A5
:10183000FFF7B6FC001B642802D90320BDE8F88F2F
:101840002868C0438000F3D40020F7E72DE9F04773
:1018500004000D4669D0DFF81C81D8F8000000F0C4
:101860000F00A8420CD2D8F8001021F00F01294334
:10187000C8F80010D8F8000000F00F00A84254D1BA
:1018800020683D4E810712D5400703D5306840F4EB
:10189000E05030602078000703D5306840F46040A5
:1018A00030603068A16820F0F00008433060207894
:1018B000C00729D0304960680839012810D009686C
:1018C000022810D0890700292FDA316821F003019E
:1018D00001433160FFF764FC074641F288390CE0B0
:1018E00009688903EFE78901EDE7FFF759FCC11BA0
:1018F000494502D90320BDE8F0873068616800F0EF
:101900000C00B0EB810FF0D1D8F80010404601F088
:101910000F01A9420BD9016821F00F012943016091
:10192000006800F00F00A84201D00120E3E7207812
:10193000400705D53068E16820F4E0500843306086
:101940002078000706D53068216920F4604040EA1D
:10195000C100306000F058F83168084AC1F3031143
:10196000515CC8400649086006480068FFF732FC31
:101970000020C0E7003C024008380240947700088D
:1019800028000020200000200F2202600C4A13686B
:1019900003F003034360136803F0F00383601368EC
:1019A00003F4E053C36012684FF4E05303EAD20239
:1019B00002610448006800F00F00086070470000F2
:1019C00008380240003C02400448054900680968A4
:1019D000044AC1F38221515CC840704728000020AE
:1019E00008380240A47700080448054900680968DF
:1019F000044AC1F34231515CC840704728000020BE
:101A000008380240A4770008154810B5006810F0A7
:101A10000C01144813D0431004290FD008290ED10B
:101A20000F4C241F216801F03F022168490207D5AD
:101A30002068C0F38810A0FB030106E0184610BD23
:101A40002168C1F38811A1FB00010023FEF746FCC9
:101A50002168C1F30141491C4900B0FBF1F010BD00
:101A6000083802400024F4002DE9F84F04004FF03C
:101A7000000877D02078DFF850B3ABF10409C00735
:101A8000A9F104054AD0DBF800105846C1F38101E2
:101A9000012908D00068C0F3810002280AD1D9F8D2
:101AA0000000400206D52868800337D5606800280A
:101AB000DFD033E06068B0F5803F0BD010B1B0F5F7
:101AC000A02F11D0286820F480302860286820F4E6
:101AD000802002E0286840F480302860606888B187
:101AE000FFF75EFB064609E0286840F48020286086
:101AF000F0E7FFF755FB801B642873D82868800344
:101B0000F7D50BE0FFF74CFB064604E0FFF748FB78
:101B1000801B6428F1D828688003F7D420788007D8
:101B200040D5DBF80010584611F00C0F08D00068C3
:101B3000C0F3810002280AD1D9F80000400206D47F
:101B40002868800717D5E06801280BD113E0E0680A
:101B50000028286817D040F001002860FFF720FB1C
:101B6000064605E02CE1FFF71BFB801B0228C4D8CA
:101B700028688007F7D52868216920F0F80040EA36
:101B8000C10028600EE020F001002860FFF708FB8C
:101B9000064604E0FFF704FB801B022822D82868D1
:101BA0008007F7D42078000725D5874F60696C3708
:101BB000002838680FD040F001003860FFF7F0FAD5
:101BC000064604E0FFF7ECFA801B02280AD83868C2
:101BD0008007F7D50FE020F001003860FFF7E0FA4A
:101BE000064605E082E0FFF7DBFA801B02287DD87D
:101BF00038688007F7D42078400769D5DFF8C8A196
:101C00000AF1380ADAF80000C0000CD4DAF8001043
:101C100041F08051CAF80010DAF800004FF00108D6
:101C200000F080500090694F3868C0050FD43868C4
:101C300040F480703860FFF7B3FA064604E0FFF71F
:101C4000AFFA801B642851D83868C005F7D55E4FBD
:101C5000A068683701280AD008B1052811D0386873
:101C600020F001003860386820F0040002E0386895
:101C700040F001003860A06898B1FFF791FA06467D
:101C80000BE0386840F004003860F0E7FFF788FAAE
:101C9000811B41F28830814265D838688007F5D5CC
:101CA0000DE0FFF77DFA064606E0FFF779FA811BA3
:101CB00041F28830814256D838688007F5D4B8F1AF
:101CC000000F05D0DAF8001021F08051CAF800109A
:101CD000A169C9B3DBF80000C0F38100022849D034
:101CE0002868022920F08070286000E03BE003D0E3
:101CF000FFF756FA044639E0FFF752FA064604E0C9
:101D0000FFF74EFA801B02282DD828688001F7D4EF
:101D1000D4E907012E4A0843A16A490802EB0141B0
:101D2000626A41EA8211084394F82C1040EA01608B
:101D300040F00051C9F80010286840F08070286019
:101D4000FFF72EFA044605E03CE0FFF729FA001BF6
:101D5000022808D828688001F7D533E0FFF720FA79
:101D6000001B022802D90320BDE8F88F28688001F3
:101D7000F4D427E0D9F80000012921D0E26900F469
:101D8000800191421CD1226A00F03F01914217D19B
:101D9000626A47F6C0710140B1EB821F10D1A26A9E
:101DA0004FF0FF3300F4403103EB5202B1EB024F2E
:101DB00006D194F82C1000F07060B0EB016F01D0E8
:101DC0000120D1E70020CFE7083802400070004032
:101DD0000000FFFF70B5040009D0606A002540B123
:101DE00025616561A56294F85D0040B10CE00120B9
:101DF00070BD6068B0F5827FF4D0E561F2E72046FF
:101E000084F85C5000F05CF8022084F85D002068E3
:101E1000016821F040010160E0684FF4E062904207
:101E200001D9002101E04FF48051B0F5706F02D06C
:101E3000904200D0A562A088228900F4827002F44A
:101E400004421043227C02F002021043227D02F081
:101E500001021043228B02F400721043227F02F031
:101E60003802104394F8202002F080021043228DA3
:101E700002F400521043226810600422A06901F4A9
:101E8000805102EA104094F8242002F0100210431E
:101E900094F8342002F008021043A28902F4706220
:101EA00010430843216848602068C16921F400613B
:101EB000C1612566012084F85D00002070BD00002E
:101EC00010B586B0044614216846FEF751FA13494E
:101ED0002068884220D11248016841F48051016095
:101EE000006800F4805005900D481438016841F0F6
:101EF000010101600068694600F001000590A02022
:101F00000090022001900020029003200390052001
:101F100004900448FFF74EF806B010BD00300140B1
:101F200044380240000002402DE9F84F044690F882
:101F30005C0000261D460128904689460ED04FF0D1
:101F4000010B84F85CB0FFF72BF9074694F85D00AD
:101F50004146B246012804D00226A5E00220BDE891
:101F6000F88FB9F1000F76D0B8F1000F73D00320CD
:101F700084F85D00C4F860A0C4F83890A4F83C80F0
:101F8000A4F83E80C4F840A0A4F844A0A4F846A059
:101F9000C4F850A0C4F84CA0A068B0F5004F09D117
:101FA0002068026822F0400202602068026842F461
:101FB0008042026020680268520603D4026842F040
:101FC00040020260E068B0F5E06F606822D908B1B5
:101FD00001291BD1A06B21680088C86006E0206839
:101FE0008168890709D5A16B0988C160A06B801C35
:101FF000A063E08F401EE08708E0FFF7D1F8C01B28
:10200000A84202D3681C01D045E0A5B3E08F0028A8
:10201000E5D135E008B101292FD1E08F0128A06B6F
:1020200003D921680088C8600FE021680078087330
:1020300014E0E08721E020688168890714D5E18FEA
:102040000129A16B08D90988C160A06B801CA0631D
:10205000E08F801EEDE726E009780173A06B401C3D
:10206000A063E08F401EE4E7FFF79AF8C01BA84288
:1020700002D3681C01D00EE06DB1E08F0028DAD1E8
:102080003A462946204601F033F908B1202020665F
:10209000A06810B105E0032606E02068C1688068EA
:1020A0000090206E00B1012684F85DB0304684F8BF
:1020B0005CA054E77047704770470000F0B590F897
:1020C0003C20012A3CD0012580F83C50022280F8B7
:1020D0003D2003685A689C681A4E1B4FB34201D0DA
:1020E000BB4204D122F4700C4A6842EA0C0222F08E
:1020F000700C0A6842EA0C025A600268B24213D0BD
:10210000B2F1804F10D0114B9A420DD0104B9A4231
:102110000AD0104B9A4207D0BA4205D00E4B9A42D1
:1021200002D00E4B9A4204D1896824F080031943EF
:10213000916080F83D50002180F83C100846F0BDC9
:102140000220F0BD000001400004014000040040F6
:1021500000080040000C0040004001400018004012
:1021600010B5040003D094F83D0010B107E0012041
:1021700010BD002084F83C00204600F023F8022027
:1021800084F83D002068211D01F018FB012084F82F
:10219000480084F83E0084F83F0084F8400084F84A
:1021A000410084F8420084F8430084F8440084F835
:1021B000450084F8460084F8470084F83D0000207C
:1021C00010BD000008B50068B0F1804F08D1054887
:1021D000016841F001010160006800F00100009019
:1021E00008BD00004038024090F83D10012901D0A0
:1021F00001207047022180F83D100168CA6842F052
:102200000102CA6000681349884214D0B0F1804FBF
:1022100011D0114988420ED0104988420BD0104984
:10222000884208D00F49884205D00F49884202D021
:102230000E49884207D181680D4A1140062906D00F
:10224000B1F5803F03D0016841F001010160002039
:1022500070470000000001400004004000080040FA
:10226000000C004000040140004001400018004004
:102270000700010070B5044690F83C0000250128D5
:1022800017D0012684F83C60022084F83D002068C5
:1022900082682F4B1A4022F47F42826008685028DF
:1022A00038D00DDC20284FD005DC90B3102811D198
:1022B0004AE0022070BD302846D040280AD13BE0D9
:1022C00060282FD070280DD0B0F5805F03D0B0F516
:1022D000005F12D0012584F83D60002084F83C00A6
:1022E000284670BD4A682068D1E9021301F0D7FA88
:1022F0002068816841F0770109E04A682068D1E9E7
:10230000021301F0CCFA2068816841F480418160B9
:10231000E1E719E0CA684968206801F0F7FB206826
:10232000502106E0CA684968206801F000FC206876
:10233000602101F0BEFACEE7CA684968206801F062
:10234000E5FB20684021F4E7226801461046F0E7EB
:1023500088FFFEFF704770B50446006801694FF0C2
:102360000005C943890715D4C168C943890711D439
:10237000E91E0161012020772068806980072046DE
:1023800002D0FFF7E7FF04E000F0D0F8204600F0AD
:1023900092F9257720680169C943490717D4C168B4
:1023A000C943490713D46FF004010161022020776B
:1023B0002068806910F4407F204602D0FFF7CAFFF2
:1023C00004E000F0B3F8204600F075F925772068A6
:1023D0000169C943090716D4C168C943090712D462
:1023E0006FF008010161042020772068C069800730
:1023F000204602D0FFF7AEFF04E000F097F8204639
:1024000000F059F9257720680169C943C90617D436
:10241000C168C943C90613D46FF0100101610820D7
:1024200020772068C06910F4407F204602D0FFF773
:1024300091FF04E000F07AF8204600F03CF925779F
:1024400020680169C943C90708D1C168C943C907E0
:1024500004D1891E0161204600F0AEF920680169AF
:10246000C943090609D4C168C943090605D46FF0F8
:10247000800101612046FFF71EFE20680169C94303
:10248000C90509D4C168C943090605D46FF4807130
:1024900001612046FFF70EFE20680169C943490625
:1024A00009D4C168C943490605D46FF040010161F0
:1024B000204600F08BF920680169C94389060BD4D6
:1024C000C168C943890607D46FF020010161204625
:1024D000BDE87040FFF7F0BD70BD000010B586B0DC
:1024E000044614216846FDF743FF2068B0F1804F91
:1024F00015D10C48016841F001010160006869468E
:1025000000F00100059004200090022001900020BE
:1025100002900390012004900348FEF74BFD06B0A3
:1025200010BD00003038024000000240704770B516
:10253000044690F83C0000260D4601280BD00120EF
:1025400084F83C000C2A4AD007DC82B1042A20D04F
:10255000082A06D131E0022070BD102A53D0142A77
:1025600063D00126002084F83C00304670BD20680E
:1025700001F0A8F92068816941F0080181612068B3
:10258000816921F004018161206881692A69114310
:1025900011E0206801F0CAF92068816941F4006106
:1025A00081612068816921F480618161206881698D
:1025B0002A6941EA02218161D4E7206801F0F0F93B
:1025C0002068C16941F00801C1612068C16921F03A
:1025D0000401C1612068C1692A69114311E02068C2
:1025E00001F016FA2068C16941F40061C1612068F8
:1025F000C16921F48061C1612068C1692A6941EA29
:102600000221C161AEE7206801F02EFA2068416D19
:1026100041F0080141652068416D21F004014165E8
:102620002068416D2A69114311E0206801F044FAE5
:102630002068416D41F4006141652068416D21F4DD
:10264000806141652068416D2A6941EA0221416546
:1026500088E710B5040003D094F83D0010B107E0FE
:10266000012010BD002084F83C00204600F022F834
:10267000022084F83D002068211D01F09FF8012010
:1026800084F8480084F83E0084F83F0084F8400055
:1026900084F8410084F8420084F8430084F8440040
:1026A00084F8450084F8460084F8470084F83D002B
:1026B000002010BD7047704710B5044669B1042969
:1026C0000ED008290FD00C2910D0102911D094F861
:1026D0004300012810D0012010BD94F83E00F8E717
:1026E00094F83F00F5E794F84000F2E794F84100D1
:1026F000EFE794F84200ECE70220E9B304293FD069
:10270000082940D00C2941D0102942D084F8430038
:102710000122206801F0B6F81F4920681F4A88424C
:1027200001D0904203D1436C43F4004343642068DA
:10273000884213D0B0F1804F10D0194988420DD093
:10274000184988420AD01849884207D0904205D0DB
:102750001649884202D01649884207D18168154A35
:102760001140062906D0B1F5803F03D0016841F041
:1027700001010160002010BDFFE784F83E00C7E7BB
:1027800084F83F00C4E784F84000C1E784F84100C2
:10279000BEE784F84200BBE70000014000040140AE
:1027A0000004004000080040000C004000400140D0
:1027B000001800400700010000680349884201D169
:1027C000FEF7F4BC704700000014004070477047EB
:1027D000704700002DE9F04103680446D869196884
:1027E0009A6840F60F0528424FF0000505D1820691
:1027F0007ED58A067CD5616E0FE1934F02F001060B
:102800000F40374374D0C70709D0CF0507D501273C
:102810001F62D4F8803043F00103C4F8803083078E
:102820000AD5D30708D0276802233B62D4F880304A
:1028300043F00403C4F8803043070AD5D20708D018
:10284000236804221A62D4F8802042F00202C4F8FD
:10285000802002070CD501F02002324308D0236803
:1028600008221A62D4F8802042F00802C4F88020BE
:1028700002050BD54A0109D523684FF400621A629C
:10288000D4F8802042F02002C4F88020D4F88020C0
:10289000002A35D0800605D5880603D5616E09B1BA
:1028A00020468847D4F8800021688968490602D408
:1028B00010F0280F26D0204601F0D9F92068806852
:1028C00040061AD52068083050E8001F21F040016A
:1028D00040E80012002AF5D1206F70B15B49016514
:1028E000206FFEF7CCF900280AD0206F016D01E0BF
:1028F0000EE02046BDE8F04108472046FFF768FF9C
:10290000BDE8F0812046FFF763FFC4F88050F7E789
:10291000266E2022012E7BD1C60679D5CE0677D52C
:102920001020186220688068400641D5216F086831
:1029300040680004000CE3D0B4F858308342DFD97B
:10294000A4F85A00C869B0F5807F2AD0206850E802
:10295000001F21F4807140E80013002BF6D120689D
:10296000083050E8001F21F0010140E80013002B5F
:10297000F5D12068083050E8001F21F0400140E800
:102980000013002BF5D1E2672566206850E8001F90
:1029900021F0100140E80012002AF6D1206FFEF766
:1029A00025F9B4F85800B4F85A10401A81B22AE058
:1029B000B4F85800B4F85A10401A81B2B4F85A006A
:1029C00000289DD000299BD0206850E8003F23F4C8
:1029D000907340E80036002EF6D12068083050E8A9
:1029E000003F23F0010340E80036002EF5D1E267F6
:1029F00025666566206850E8002F22F0100240E846
:102A00000023002BF6D12046FFF7E1FE78E7FFE731
:102A1000030606D50B0604D5A16E00297FF469AF25
:102A20006EE74006F2D54806F0D52046016851E829
:102A3000003F23F0400341E80034002CF6D18267C8
:102A4000856600F0F9F85BE7200100045B3C0008B4
:102A500010B5040002D0A06F10B107E0012010BD36
:102A6000002084F87400204600F026F82420A06797
:102A70002068016821F001010160204601F01CF985
:102A80000128ECD0606A10B1204601F062F820689D
:102A9000416821F4904141602068816821F02A0159
:102AA00081602068016841F0010101602046BDE8B5
:102AB000104001F0B2B8000070B5A6B0064614216F
:102AC00020A8FDF755FC80216846FDF751FC2849F8
:102AD0003068884249D1402000250F950090684613
:102AE000FEF78EFC08B1FDF7E4FD2248016841F0D5
:102AF00010010160006800F0100025901D48143896
:102B0000016841F001010160006820A900F00100A6
:102B100025904FF4C06020900220CDE921050320CC
:102B20002390072024901448FEF744FA144C1348CD
:102B300020604FF00060C4E901054014C4E903506F
:102B400065612046A561E56125626562FEF77AF957
:102B500008B1FDF7AEFD0022346725201146A663BB
:102B6000FEF7E6FB2520FEF7D5FB26B070BD000082
:102B7000001001404438024000000240406402401E
:102B8000300700202DE9F8430446806F1F461546A4
:102B90000E4620284ED1CEB1C5B194F8740001285C
:102BA00048D0012084F874004FF00008C4F88080F9
:102BB0002120A067FEF7F4FAA4F850508146A4F84B
:102BC0005250A068B0F5805F03D004E00120BDE85A
:102BD000F883206920B13546002684F8748010E01F
:102BE0000025FAE78021204601F080F9B8B9C5B187
:102BF00015F8010B21688862B4F85200401EA4F851
:102C00005200B4F852004B464FF0000200970028E3
:102C1000E8D14FF04001204601F068F930B10320BF
:102C2000D5E736F8020BC0F30800E3E72020A067E1
:102C30000020CCE70220CAE77047FEE72DE9F0410B
:102C40001D4616460F4604462A2000F0B5F92046D8
:102C500000F0A7F9304600F0A4F92B2000F0ACF901
:102C6000384600F09EF9284600F09BF9BDE8F04197
:102C70002C2000F0A1B910B50028144610DB002963
:102C80000EDBF0280CDAF0290ADA8BB282B289B2B4
:102C900080B2FFF7D3FF2046BDE8104000F081B9B5
:102CA00010BD2DE9F04780461F46581E164683B2D8
:102CB000DDF82090501E0D4682B24046FFF7BEFF61
:102CC0000AE0444604E0484600F06BF9641CA4B2F4
:102CD000B442F8D36D1CADB2BD42F2D3BDE8F0876B
:102CE00010B56E4C002210212046FEF753FA052045
:102CF000FEF74EF9012220461021FEF74BFA78200C
:102D0000FEF746F9112000F057F97820FEF740F958
:102D1000362000F051F9002000F062F93A2000F06E
:102D20004BF9052000F05CF9B22000F045F91F20B6
:102D300000F056F91F2000F053F9002000F050F980
:102D4000332000F04DF9332000F04AF9B72000F0AD
:102D500033F9352000F044F9BB2000F02DF92B2089
:102D600000F03EF9C02000F027F92C2000F038F9DF
:102D7000C22000F021F9012000F032F9C32000F058
:102D80001BF90F2000F02CF9C42000F015F92020C9
:102D900000F026F9C62000F00FF9132000F020F90A
:102DA000D02000F009F9A42000F01AF9A12000F0C9
:102DB00017F9D62000F000F9A12000F011F9E02069
:102DC00000F0FAF8F02000F00BF9042000F008F908
:102DD000072000F005F9042000F002F9042000F0BB
:102DE000FFF8042000F0FCF8252000F0F9F833206B
:102DF00000F0F6F83C2000F0F3F8362000F0F0F890
:102E0000142000F0EDF8122000F0EAF8292000F07C
:102E1000E7F8302000F0E4F8E12000F0CDF8F020F1
:102E200000F0DEF8022000F0DBF8042000F0D8F813
:102E3000052000F0D5F8052000F0D2F8212000F0A0
:102E4000CFF8252000F0CCF8322000F0C9F83B2064
:102E500000F0C6F8382000F0C3F8122000F0C0F8E7
:102E6000142000F0BDF8272000F0BAF8312000F05F
:102E7000B7F8E42000F0A0F81D2000F0B1F8002021
:102E800000F0AEF8002000F0ABF8212000F094F83C
:102E9000BDE81040292000F08FB800000008024073
:102EA0002DE9F84F01F0FF0A1E460F4683465807EA
:102EB00000D00120710800EBD600203A10FB01F091
:102EC000002502F0FF09C0B2009035E00C2E0FD0B3
:102ED000102E11D0182E32D11A4909EBC90001EB7E
:102EE00080004FF00008445D200609D50A9A08E0EA
:102EF000154909EB4900F2E7144901EB0910F0E725
:102F0000002239465846FFF7B6FE60067F1C3FB2E6
:102F1000040EA7EB0A00B04205D10BF101005746A1
:102F20000FFA80FB06E008F1010000F0FF08B8F19D
:102F3000080FD9D36D1CEDB200988542C6D3BDE809
:102F4000F88F00007C5E0008185400088C580008B8
:102F50002DE9F84F1E46044680201746DDF828A0CC
:102F6000A0EB5609C3F140080D4613E0A14502DA73
:102F70000024A81905B2A84501DA002425463346E5
:102F800029462046CDF800A0FFF78AFF04EB560043
:102F900004B27F1C3A78A2F120005E28E6D9BDE891
:102FA000F88F10B50446000A00F01AF8E0B2BDE848
:102FB000104000F015B8000070B5084C0022022146
:102FC00005462046FEF7E6F8284600F009F82046B8
:102FD000BDE8704001220221FEF7DCB80008024083
:102FE00031B5094C002201212046FEF7D3F80748ED
:102FF000FF2301226946FEF797FF01222046114672
:10300000FEF7C8F838BD000000080240FC050020AB
:103010001FB516480021144A012400910191029124
:10302000039102604FF4803204618461C0E90121A0
:103030000F4A80F82010C0E90A21C461C16080F8FD
:1030400030404161FDF7B9FC08B1FDF732FB0720C4
:1030500000946946CDE901400448FDF72DFB0028A6
:1030600001D0FDF726FB1FBD0020014054050020C4
:103070000100000F0D4808B5016841F480010160AE
:1030800000680022114600F4800000903820FEF70E
:103090004FF93820FEF73EF900223A201146FEF79C
:1030A00047F9BDE808403A20FEF734B9303802400D
:1030B00030B51D4C9DB015AD94E80F0085E80F00AC
:1030C000002115A801F0D4F9184D1034286194E8B6
:1030D0000F0019AC84E80F00002119A801F0C8F90D
:1030E00011491C22686168462031FDF728F900214A
:1030F000684601F0D0F90C491C22686007A83C31F1
:10310000FDF71DF9002107A801F0C5F906491C22A9
:10311000A8600EA85831FDF712F900210EA801F0A1
:10312000BAF9E8601DB030BD18770008040000202F
:1031300070B586B014216846FDF71AF91D4801687C
:1031400041F080010160016801F080010591016892
:1031500041F004010160016801F00401059101687A
:1031600041F00101016000680122134E132100F0BB
:10317000010005903046FEF70DF800223046C021D0
:10318000FEF708F80124694603251320CDE9000461
:10319000CDE902453046FDF70DFFC0206946CDE977
:1031A00000040020CDE902053046FDF703FF06B01C
:1031B00070BD0000303802400008024012484FF451
:1031C000E062104910B501604FF482714160002146
:1031D000C0E902124FF400720161C0E90512082231
:1031E000C0E9072107224162C0E90A120163416375
:1031F000FEF7F0FD002803D0BDE81040FDF759BAF6
:1032000010BD000000300140FC05002010B58EB05C
:10321000002468461C210794089409940A940B948E
:103220000C940D94FDF7A4F81D484FF08041C0E9BF
:10323000001440F23741C0E9024104618461FEF7A5
:103240008FFF08B1FDF735FA4FF48050079014480E
:1032500007A9FFF70FF808B1FDF72BFA1048FFF7A1
:10326000F8F908B1FDF725FA0D480BA90B940D9458
:10327000FEF724FF08B1FDF71CFA60206946CDE98E
:1032800000040748082202940494FFF750F908B19B
:10329000FDF70FFA0248FFF721F90EB010BD00004C
:1032A0006006002010480C220E4910B501604FF452
:1032B000E131416000218160C160C0E90412816197
:1032C000C1610162302141624FF480518163490044
:1032D000C163FFF7BDFB002803D0BDE81040FDF738
:1032E000E8B910BD00100140AC060020FEE7FEE783
:1032F000F8B515460E4604460B464FF4C0510092F1
:10330000002200F035F840BB174818490068B0FBB0
:10331000F1F04FF47A71484300906068B0F5827F15
:1033200008D10022334680212046009500F08EF817
:1033300098B908E0009830B1401E0090206880687D
:10334000C0430006F6D5002233464FF4C061204644
:10335000009500F00DF8002804D0206E40F0200009
:1033600020660320F8BD00002800002000366E0112
:103370002DE9FC5F984616460F4604460C9D4FF01B
:10338000000B8DF804B0FDF70BFF411BA8EB010506
:10339000FDF706FF8246206800F10C092A48006804
:1033A000C0EBC00000EB8000000D684343E0B7F5C0
:1033B000C06F06D12EB999F800008DF804009DF871
:1033C0000400B8F1FF3F37D0FDF7EAFEA0EB0A009A
:1033D000A84203D215B1009858B32BE02068416889
:1033E00021F0E00141606068B0F5827F0BD1A068F8
:1033F000B0F5004F02D0B0F5806F04D120680168AD
:1034000021F040010160A06AB0F5005F09D1206899
:10341000016821F4005101602068016841F4005105
:103420000160012084F85D00032084F85CB0BDE8F1
:10343000FC9F0025401E0090206880683840B04204
:10344000B5D10020F3E70000280000202DE9F84363
:103450001E46914688460446089DFDF7A1FE401B86
:10346000351AFDF79DFE074625480068C0F3CB30AE
:10347000684338E0701C37D0FDF792FEC01BA842AD
:1034800003D215B1009860B32CE02068416821F0A8
:10349000E00141606068B0F5827F0BD1A068B0F5B3
:1034A000004F02D0B0F5806F04D12068016821F090
:1034B00040010160A06AB0F5005F09D12068016891
:1034C00021F4005101602068016841F4005101605D
:1034D000012084F85D00002084F85C000320BDE832
:1034E000F8830025401E00902068816838EA0100BA
:1034F00004D000204845BDD10020F0E70120F9E7C5
:1035000028000020642000F0A7FFFBE72C49C82218
:103510002C48FDF7D1FA0026DFF8ACA0DFF8AC802C
:1035200035463446B146434698F80000012843D159
:1035300083F800900021224A084632F81070401C9F
:10354000C8283944F9DBC820B1FBF0F72049587886
:1035500021F81070012E19D1381B284405B2A8F8A3
:103560000250BCB2B8F902004FF000024FF08001E7
:103570000528504603DDFDF70DFE012202E0FDF7B0
:1035800009FE002250464021FDF704FE98F8011084
:103590004046491C88F8011098F80110F0290BD317
:1035A00080F801900EB9BCB20126D8F808000023BB
:1035B0000222194601F0B4FD012000F04DFFB2E7F0
:1035C0009000002054050020000802400400002064
:1035D00020020020A2B0FFF783FB00200090F02320
:1035E00001461A46FFF75DFB28480821FFF764F8FB
:1035F00026494FF434700968C86300210C2308463B
:103600004FF47844009422A2FFF7A2FC1023009408
:103610000020194621A201F027FA0521012001F01E
:103620007DFAF8B1214A0021084602EB4003B3F8C5
:103630006430401CC0B232281944F6D33220B1FBAA
:10364000F0F5FDF7ADFD64212A46B0FBF1F318A1BA
:1036500001A800F0C5FC102300943021002001AA2D
:1036600001F002FA1748B0F9022017A101A800F0F2
:10367000B7FC1F20009010234021002001AA01F078
:10368000F3F9052000F0E8FEC7E70000600600201F
:1036900048656C6C6F20576F726C640048656C6C89
:1036A0006F20B9CCBCFEC9FDBCB6000020020020D2
:1036B000496E6974204144433A2535642C253764AA
:1036C000000000000400002043616C633A2536646A
:1036D00020200000502010B572B680F31188BFF38F
:1036E0004F8FBFF36F8F62B601F090FD18B10449A0
:1036F0004FF080500860002080F3118810BD00005A
:1037000004ED00E010B592B030216846FCF730FEC1
:1037100014210CA8FCF72CFE1F48016841F08051D1
:103720000160006800F0805011901C48016841F46D
:10373000404101600068022400F4404011900120E3
:103740000090000401908001CDE90640042008901B
:10375000D820CDE9090468460B94FEF785F908B135
:1037600072B6FEE7FDF716FE08B172B6FEE70F204F
:10377000CDE90C0400200E904FF4A0500F904FF4B0
:103780008050109007210CA8FEF760F8002801D0A7
:1037900072B6FEE712B010BD403802400070004023
:1037A0000248016841F470010160704788ED00E053
:1037B0000148FEF7D0BD000090070020F0B5026878
:1037C0004FF0804E244D254E254FA842DFF894C07F
:1037D000254B09D0704507D0B04205D0B84203D080
:1037E000604501D0984203D122F070044A68224318
:1037F000A8421BD0704519D0B04217D0B84215D09E
:10380000604513D0984211D0184CA0420ED0184CED
:10381000A0420BD0174CA04208D0174CA04205D0B4
:10382000164CA04202D0164CA04203D122F44074A0
:10383000CA6822434C6922F08002224302608A68EF
:10384000C2620A688262A84201D0984201D1096925
:10385000016301214161F0BD00000140000400400E
:1038600000080040000C00400004014000400140FE
:10387000004401400048014000180040001C004086
:1038800000200040012301F01F0110B5046A8B40A5
:103890009C430462036A8A401343036210BD10B55F
:1038A000846842EA03220A4324F47F44224382606C
:1038B00010BD826822F070020A4342F00701816065
:1038C00070470000F0B5026A22F001020262056A48
:1038D0004268836925F00205114C124E23400C68A2
:1038E00023F00303104F1C438B682B43B04201D0DD
:1038F000B84205D123F00805CB682B4323F004031D
:10390000B04201D0B84205D14D6922F4407215434E
:103910008A692A4342608461496841630362F0BD59
:103920008FFFFEFF0000014000040140F0B5026A75
:1039300022F010020262056A42688369154C174E34
:1039400023400C6823F4407343EA042425F0200349
:103950008D6843EA0513104DA84201D0B04206D14C
:10396000CF6823F0800343EA071323F04003A84203
:1039700001D0B04207D14D6922F4406242EA85028B
:103980008D6942EA8502426084614968816303620D
:10399000F0BD0000FF8FFFFE000001400004014069
:1039A000F0B5026A22F480720262056A4268C36955
:1039B000144C164E23400C6823F003031C4325F4DB
:1039C00000738D6843EA05230F4DA84201D0B04231
:1039D00006D1CF6823F4006343EA072323F480630E
:1039E000A84201D0B04207D14D6922F4405242EAC8
:1039F00005128D6942EA05124260C4614968C163DB
:103A00000362F0BD8FFFFEFF000001400004014093
:103A100030B5026A22F480520262046A4268C369C5
:103A200024F400540D4D2B400D6823F4407343EAF9
:103A300005238D6844EA0534094DA84202D0094D9A
:103A4000A84204D14D6922F4804242EA85124260C4
:103A5000C36149680164046230BD0000FF8FFFFE4E
:103A6000000001400004014030B5026A22F48032B7
:103A70000262056A4268436D0C4C23400C681C438B
:103A800025F400330D8943EA0543094DA84202D0CD
:103A9000084DA84204D14D6922F4803242EA052241
:103AA0004260446549688165036230BD8FFFFEFF57
:103AB000000001400004014030B5026A22F4801287
:103AC0000262056A4268436D0D4C23400C6843EA6C
:103AD000042425F400130D8943EA0553094DA84237
:103AE00002D0094DA84204D14D6922F4802242EA55
:103AF0008522426044654968C165036230BD0000AB
:103B0000FF8FFFFE000001400004014010B5046A71
:103B1000036A23F001030362836923F0F00343EA9D
:103B20000213836124F00A020A43026210BD10B539
:103B3000036A23F0100303628469036A24F4704467
:103B400023F0A00344EA0232826143EA01110162D8
:103B500010BD90F82410C90706D001684A68836A2E
:103B600022F400321A434A6090F82410890706D5DF
:103B700001684A68C36A22F480321A434A6090F8A6
:103B80002410490706D501684A68036B22F4802295
:103B90001A434A6090F82410090706D501684A685C
:103BA000436B22F400421A434A6090F82410C9067D
:103BB00006D501688A68836B22F480521A438A60B2
:103BC00090F82410890606D501688A68C36B22F430
:103BD00000521A438A6090F82410490611D50168F2
:103BE0004A68036C22F480121A434A60016CB1F5F2
:103BF000801F06D101684A68436C22F4C0021A4350
:103C00004A6090F82410090606D501684A68806C5D
:103C100022F4002202434A60704738B5002504466A
:103C2000C0F88050FDF7BCFA034620680068000722
:103C30000BD56FF07E400090002220464FF400111B
:103C400000F054F908B1032038BD2020A067E067D8
:103C50002566002084F8745038BD10B5806B0021B3
:103C6000A0F85A10A0F85210FEF7B2FD10BD01687E
:103C700051E8002F22F4907241E80023002BF6D186
:103C80000168083151E8002F22F0010241E80023C9
:103C9000002BF5D1016E012908D1016851E8002FF0
:103CA00022F0100241E80023002BF6D12021C16749
:103CB000002101664166704770B50446816800695D
:103CC0000025E269014360691043014320680268EE
:103CD0007B4B1A400A43026020684168E26821F485
:103CE000405111434160216AA06901432068826804
:103CF00022F430620A438260724B4FF40042206823
:103D0000714998420AD1086810F0030052D0012886
:103D10007CD002287BD003286ED187E06B4B984281
:103D20000AD1086810F00C007AD004287CD008284A
:103D300078D00C2860D179E0654B98420AD10868A8
:103D400010F030006CD010286ED020286AD03028B7
:103D500052D16BE05F4B98420AD1086810F0C00066
:103D60005ED0402860D080285CD0C02844D15DE07F
:103D7000594B98420DD1086810F4407050D0B0F5FE
:103D8000807F51D0B0F5007F4CD0B0F5407F33D16B
:103D90004CE0524B98420FD1086810F4406009D0B3
:103DA000B0F5806F40D0B0F5006F3BD0B0F5406FFC
:103DB00022D13BE0012120E0494B98420DD1086817
:103DC00010F440502CD0B0F5805F2DD0B0F5005FDE
:103DD00028D0B0F5405F0FD128E0424B98420BD17C
:103DE000086810F440401BD0B0F5804F1CD09042C2
:103DF00018D0B0F5404F19D01021E3693A484FF67A
:103E0000EF76934233D109294CD202E00CE009E06D
:103E100006E0DFE801F00D10154729474747160077
:103E20000021EAE70221E8E70421E6E70821E4E7C8
:103E3000FDF7CAFD01E0FDF7D7FD020001D139E031
:103E400002466068510001EB5001B1FBF0F0A0F1B7
:103E50001001B14226D84FF6F0710140C0F3420084
:103E600001432068C16025E0FDF7CEFDE5E70929A3
:103E700018D2DFE801F005080D17191717170E0003
:103E8000FDF7A2FD01E0FDF7AFFD020001D111E059
:103E90000246606802EB5001B1FBF0F0A0F11001A6
:103EA000B14204D9012505E0FDF7AEFDEDE721683B
:103EB00080B2C86000206066A066284670BD000021
:103EC000F369FFEF001001409038024000440040C9
:103ED00000480040004C00400050004000140140E9
:103EE00000780040007C00400024F4002DE9F047F9
:103EF0001F4690460E460446089D4FF0000A4FF0BC
:103F0000200949E0681C47D0FDF74AF9C01BA842C8
:103F10002AD84DB32068016849073DD5C069C04320
:103F2000000539D421684FF400600862206850E829
:103F3000001F21F4D07140E80012002AF6D1206859
:103F4000083050E8001F21F0010140E80012002A6B
:103F5000F5D1C4F87890C4F87C90C4F88090032020
:103F600084F874A0BDE8F087206850E8001F21F4B1
:103F7000D07140E80012002AF6D12068083050E8DD
:103F8000001F21F0010140E80012002AF5D1C4F819
:103F90007890C4F87C90E2E72068C06936EA0000B7
:103FA00004D000204045ADD00020DBE70120F9E738
:103FB0000148FEF70FBC0000AC060020FEE7000041
:103FC0000FB4054B10B503A9044A029800F03CF861
:103FD00010BC5DF814FB0000954300088C00002025
:103FE0000FB4084B10B504A902AA039800F02CF8EE
:103FF000044602A9002000F0C8F9204610BC5DF874
:1040000014FB00008B4300080907090E002804DB9D
:1040100000F1E02080F80014704700F00F0000F17C
:10402000E02080F8141D704702E008C8121F08C184
:10403000002AFAD170477047002001E001C1121F29
:10404000002AFBD1704700002DE9FF4F8BB0884656
:104050000546002606E025280BD0DDE90D12904725
:104060006D1C761C28780028F5D10FB03046BDE8CD
:10407000F08F0024A146A2460122AE4900E004438D
:1040800015F8013F203B02FA03F00842F7D12878E7
:104090002A2810D06FF02F022878A0F130010929CA
:1040A00015D809EB890102EB410144F0020400EB51
:1040B00001096D1CF0E758F8041B5FEA010903D5FC
:1040C00044F40054C9F1000944F002046D1C28783E
:1040D0002E2817D115F8010F44F004042A280ED019
:1040E0006FF02F022878A0F1300109290AD80AEBD5
:1040F0008A0102EB410100EB010A6D1CF2E758F85E
:1041000004AB6D1C28786C280FD006DC4C2817D027
:1041100068280DD06A2814D104E0742810D07A28B9
:104120000FD10DE044F400140AE044F4801401E0DF
:1041300044F440146978814202D104F580146D1C66
:104140006D1C2878692865D006DC00288DD063288E
:1041500027D0642806D15DE06E2808D073282AD0C5
:10416000752877D0DDE90D129047761CE0E0C4F3A6
:104170000250022809D003280DD0D8F800100428D6
:104180000DD00E6008F10408D2E0D8F80010F21744
:10419000C1E90062F6E7D8F800100E80F2E70E7071
:1041A000F0E718F8041B8DF8001000208DF80100CE
:1041B000EB46012003E058F804BB4FF0FF306107E5
:1041C0004FF0000701D40AE07F1C57450DDA874203
:1041D000FADB1BF807100029F6D106E07F1C8742A6
:1041E000FCDB1BF807100029F8D1DDE90D23A9EB52
:1041F00007008146214600F0B1F83044C61904E0BA
:10420000DDE90D121BF8010B90477F1EF8D2214605
:10421000484688E058F8040BC4F302514FF00A0BEB
:10422000032900D100B2042900D140B2002802DAEB
:1042300040422D2102E0210505D52B218DF82410C7
:10424000012104E006E0E10710D02021F6E708AFE5
:10425000089113E058F8040BC4F302514FF00A0B15
:10426000032900D180B2042900D1C0B20021EEE7B9
:104270005946FCF78FF8303107F8011D0028F7D1B7
:10428000ADEB070000F1200B600702D524F4803469
:1042900001E04FF0010ADA4502DDAAEB0B0000E075
:1042A0000020824600EB0B0108980144A9EB0100B5
:1042B0000A90E00306D4DDE90D2321460A9800F0B8
:1042C0004DF806444FF0000908E009A911F809006B
:1042D000DDE90D12904709F10109761C089989451D
:1042E000F3DBE0030CD5DDE90D2321460A9800F04D
:1042F00035F8064404E0DDE90D1230209047761CC5
:10430000BAF10001AAF1010AF5DC05E0DDE90D12C0
:1043100017F8010B9047761CBBF10001ABF1010BC4
:10432000F4DC0A982146DDE90D2300F005F8064487
:104330006D1C97E6092801002DE9F041044600258F
:104340001E461746880404D405E039462020B047AD
:104350006D1C641EF9D52846BDE8F0812DE9F041B9
:10436000044600251E469046C80301D5302700E0CC
:104370002027880404D505E041463846B0476D1C27
:10438000641EF9D52846BDE8F0810A68531C0B600D
:104390001070704713B5044801224FF6FF73694649
:1043A000FEF7F0FB00981CBDAC0600201FB50024F2
:1043B0000094019402940394FCF770FF01208DF89F
:1043C0000C001F218DF8081087218DF809108DF839
:1043D0000D008DF8000068468DF80A408DF80E40FB
:1043E0008DF8014001948DF80B408DF80F40FCF7DB
:1043F0002BFF0420FCF760FFFCF7E0FEFFF782F9DB
:10440000FEF796FEFEF736FEFEF702FEFEF7D6FE3C
:10441000FEF748FFFEF7FAFE07A0FFF7D1FDFEF713
:1044200047FE00F020F8084C04212046FCF7AAFEC5
:104430000220FCF7ADFDF7E773797374656D2073A7
:10444000746172740D0A00000004024001460020ED
:10445000842900D0C81C704710B500B9012000F0B5
:104460005FFC002010BD10B500F082FC002010BDE4
:1044700038B5D0E9011204683AB1C3682BB1002005
:104480000090204600F06CFD38BD2046BDE8384065
:10449000002200F03FBD7FB50D4641690446B0F9EA
:1044A000080081B1A16971B1FFF7D0FFD4E905120D
:1044B0002B468DE807002269D4E9001000F0FFFDCB
:1044C000039004B070BDFFF7C1FF03A92B46CDE9EF
:1044D0000001208A82B2D4E9001000F0C3FD012857
:1044E00001D00020EDE70398EBE700002DE9F04153
:1044F0001A4E0F46044675690020316881F8520053
:104500003068001D00F03EFB38B9306890F82C1080
:1045100001208840B1698143B161601C07D137B186
:104520003168BDE8F0410E48091D00F06FBB3068EE
:104530002C44AC424460316805D2B068091DBDE826
:10454000F04100F04BBB7068091D00F047FB306B79
:10455000844200D23463BDE8F08100002C000020CA
:10456000B80800202DE9F041054600F05BFB2E4E17
:104570003069401C306130682C4F10B1F06940B395
:104580002DE035603069012829D1002404EB840036
:1045900007EB800000F014FB641C072CF6D32348C3
:1045A0008C3000F00DFB2148A03000F009FB1F48C3
:1045B000B43000F005FB1D48C83000F001FB1B487B
:1045C000DC3000F0FDFA19488C3070601430B060B7
:1045D00005E03068E96AC06A884200D83560012188
:1045E000F06A401CF062E86AB26981401143B1612F
:1045F00000EB8000291D07EB800000F007FB00F0B6
:1046000035FBF06900280CD03068E96AC06A88423E
:1046100007D207494FF080500860BFF34F8FBFF3B8
:104620006F8FBDE8F08100002C000020DC07002027
:1046300004ED00E010B5044690F8510068B101287F
:104640000ED0022811D0502072B680F31188BFF32B
:104650004F8FBFF36F8F62B6FEE7206B00F01CFB3D
:104660002046BDE8104000F017BB10BD10484FF4C5
:104670007051420706D00E49C01D20F00700411AB4
:10468000C1F570510B4A002301440839C2E9000307
:10469000103A21F0070111604B600B600B1AC0E962
:1046A000001393604FF000405360D06070470000EB
:1046B000CC08002078000020134E4FF08058134D96
:1046C000DFF84C90A6F1C80711E000F0ABFAF068F3
:1046D000C468201D00F056FA2869401E2861E86869
:1046E000401EE86000F0C2FA2046FFF7A3FFE8682A
:1046F0000028EAD138680128F9D9C9F80080BFF349
:104700004F8FBFF36F8FF2E7A40800202C0000202A
:1047100004ED00E00346009829B10260C0E90F31C2
:10472000012100F059BC0060F8E72DE9F05F0E466A
:104730009A4691001746DDE90B940A9DA52283460F
:10474000206BFBF70EFE206B6FF0030101EB87017E
:10475000084420F00707780709D0502072B680F38C
:104760001188BFF34F8FBFF36F8F62B6FEE74FF034
:10477000000866B100202218315C82F83410315CE8
:1047800011B1401C1028F6D384F8438001E084F86E
:104790003480072D00D30625E562201DC4E9115899
:1047A00000F019FA04F1180000F015FA2461C5F1BF
:1047B00007006462A061C4F84C8084F850805246BF
:1047C0005946384684F8528000F0C8F8B9F1000F15
:1047D000206001D0C9F80040BDE8F09F30B5114914
:1047E00000E011460A688242FBD34B685C188442A1
:1047F00003D1406818444860084643681C18944236
:1048000009D1084C103C2468A24209D052681A44CD
:1048100042600A6812680260814200D0086030BDC0
:104820000460F9E77800002006484168096829B16A
:104830004168C968C9684968016370474FF0FF3132
:10484000FAE700002C0000200A484068401C4FF0A6
:10485000500072B680F3118805D0BFF34F8FBFF3BD
:104860006F8F62B6FEE7BFF34F8FBFF36F8F62B6F5
:10487000FEE70000800000202DE9F04100260546FB
:1048800000F0AEFA344F386808B9FFF7EFFEF86869
:1048900005424FD1E5B30835680710D005F0070091
:1048A000C0F108000544680709D0502072B680F3B3
:1048B0001188BFF34F8FBFF36F8F62B6FEE73DB332
:1048C0007868854236D8244910310846046801E0EA
:1048D000214604466068A84202D220680028F7D129
:1048E0003868844226D00E68206808600836606800
:1048F000411B102911D9601942070AD0502072B605
:1049000080F31188BFF34F8FBFF36F8F62B6FEE75E
:1049100010E041606560FFF761FF61687868401AE8
:104920007860BA68904200D2B860F868014300200D
:10493000C4E9000100F00CFD700709D0502072B6E8
:1049400080F31188BFF34F8FBFF36F8F62B6FEE71E
:104950003046BDE8F081000068000020031F10B55C
:104960004FF080741C601B1F21F001011960191F9A
:10497000044B0B6014390A60091F44386FF00202BF
:104980000A6010BD494800082DE9FF4F81B09B46E1
:104990001FFA81FA90460D46DDF838905FEA4970BB
:1049A00000D0012000EBD900BBF1100F00FB0BF091
:1049B000C0B2009050D1B9F1100F4DD12848002459
:1049C00007680EE017F8140098F80010884206D126
:1049D00007EB440098F801104078884207D0641C27
:1049E000A4B23846FBF7CFFCB4EB500FEAD33846FD
:1049F000FBF7C9FCB4EB500F2ED2002028E0BBF12E
:104A0000100F07D1B9F1100F04D1164800EB441173
:104A100011F808600027300604D50F9A294601983E
:104A2000FEF729F970066D1C2DB2060EA5EB0A01E2
:104A3000494506D101980FFA8AF5401C00B2019051
:104A400003E07F1CFFB2082FE5D308F10100C0B2DC
:104A5000009980468842D2D305B0BDE8F08F0000AF
:104A600000000020D86B00082DE9FC5F1FFA80F8D9
:104A70001C461FFA81FA1746DDF830B00E4605468F
:104A8000002081461EE0B9F1000F20D0A8EB040001
:104A90004FF00009F030A84204DA3019801C06B249
:104AA0000FFA88F5AAEB0400F030B0420DDBCDE937
:104AB000004B23463A4631462846FFF765FF281942
:104AC00005B2BF1C3A78002ADDD1BDE8FC9F802AE0
:104AD00001D90120D5E7A8EB5400F030A84203DA51
:104AE000301906B20FFA88F5AAEB0400F030B04294
:104AF000EBDB0D2A0BD0234631462846CDF800B01B
:104B0000FEF7CEF905EB540005B27F1CDAE7301949
:104B100006B20FFA88F57F1CF4E7000070B50C466A
:104B2000064600F07FF8154D2868C06C80B92968EA
:104B3000012081F850005CB101212046FFF7D6FC2E
:104B40000F494FF080500860BFF34F8FBFF36F8F56
:104B500000F08CF800F066F82868C46C002034B1CE
:104B600016B12968C86402E02A68611ED164296808
:104B700081F8500000F07AF8204670BD2C0000202B
:104B800004ED00E0D0E9013201699A60D0E9012327
:104B90005A604A68824201D182684A6000220261FA
:104BA0000868401E0860086870470000034B0360F7
:104BB00003F154000860402010607047000400209A
:104BC0004FF0FF3200F10801C0E90112C16001613C
:104BD00000210160704700210161704730B50C6809
:104BE000621C02D000F1080202E0026904E01A46E9
:104BF00053681D68A542FAD953684B6099608A6072
:104C0000516008610168491C016030BD42684A601A
:104C100093688B6093685960916008610168491CD2
:104C200001607047502072B680F31188BFF34F8F38
:104C3000BFF36F8F0B4962B64868401C486001287B
:104C40000ED10948006810F0FF0F09D0502072B64D
:104C500080F31188BFF34F8FBFF36F8F62B6FEE70B
:104C6000704700008000002004ED00E0094948681A
:104C700028B1401E486001D180F311887047502050
:104C800072B680F31188BFF34F8FBFF36F8F62B698
:104C9000FEE700008000002070B500282BD0164DE4
:104CA000A0F108046068E968084209D1502072B692
:104CB00080F31188BFF34F8FBFF36F8F62B6FEE7AB
:104CC00022684AB1502072B680F31188BFF34F8F2B
:104CD000BFF36F8F62B6FEE78843606000F080F834
:104CE00060686968084468602046FFF777FDBDE8A2
:104CF000704000F02DBB70BD680000204FF0E02038
:104D00000021016181614FF47A7204490968B1FBA5
:104D1000F2F1491E4161072101617047280000201E
:104D2000020010B516D01048806B48B1502072B602
:104D300080F31188BFF34F8FBFF36F8F62B6FEE72A
:104D400000F04EF800211046FFF7D0FB00F000FB0A
:104D5000002807D105494FF080500860BFF34F8FFE
:104D6000BFF36F8F10BD00002C00002004ED00E0A9
:104D700010B586B0002405AA04A9039403A80494DE
:104D8000FFF714FFDDE9030100940023CDE90110D2
:104D900011480FA1059A00F092F9104900284863C4
:104DA00013D0502072B680F31188BFF34F8FBFF33A
:104DB0006F8F62B64FF0FF3008630120C8614C610D
:104DC00006B0BDE8104000F043B806B010BD0000CA
:104DD00049444C4500000000B94600082C00002062
:104DE0000248816B491C8163704700002C00002041
:104DF000154A906B10B1012050627047002050623C
:104E000090691249B0FA80F0C0F11F0000EB8000F9
:104E100051F820306BB101EB800000F108034168CC
:104E200049684160994201D149684160C868106091
:104E30007047502072B680F31188BFF34F8FBFF3D5
:104E40006F8F62B6FEE700002C000020DC07002018
:104E50002C491CB508780190FF20087008788DF85F
:104E600000009DF800009DF8002000F0F000904246
:104E700009D0502072B680F31188BFF34F8FBFF373
:104E80006F8F62B6FEE79DF800001F4B00F05000E8
:104E900018700720986006E0401E98609DF800009A
:104EA00040008DF800009DF8000000069868F3D4DB
:104EB000032809D0502072B680F31188BFF34F8FBA
:104EC000BFF36F8F62B6FEE74FF4407098600198B1
:104ED00008700E48016841F470010160016841F0FA
:104EE00070410160FFF70AFF00205860FBF7A6F948
:104EF0000748016841F040410160FBF78BF9002051
:104F00001CBD000000E400E08000002020ED00E077
:104F100034EF00E0F8B5050017460E4614D0EEB1A8
:104F200005FB06F04830FFF7A7FC04000AD000207C
:104F300084F8460004F148023B4631462846009476
:104F4000FFF7E8FB2046F8BD502072B680F31188C9
:104F5000BFF34F8FBFF36F8F62B6FEE70020E1E72C
:104F600038B5049D18B163B1FAB1A1B128E0502061
:104F700072B680F31188BFF34F8FBFF36F8F62B6A5
:104F8000FEE7502072B680F31188BFF34F8FBFF356
:104F90006F8F62B6FEE7502072B680F31188BFF3C0
:104FA0004F8FBFF36F8F62B6FEE749B1502072B6E4
:104FB00080F31188BFF34F8FBFF36F8F62B6FEE7A8
:104FC00048241C46012384F846302B460094FFF702
:104FD000A1FB204638BD000070B504000D4625D069
:104FE000FFF720FED4E90F20216802FB0011A16029
:104FF0000021A163216861600A46D4E90F01401EC7
:1050000000FB0121E1604FF0FF3084F8440084F898
:10501000450004F110009DB1FFF7D2FD04F124001A
:10502000FFF7CEFDFFF722FE012070BD502072B6C3
:1050300080F31188BFF34F8FBFF36F8F62B6FEE727
:1050400021690029EED000F047F90028EAD0044990
:105050004FF080500860BFF34F8FBFF36F8FE1E7D1
:1050600004ED00E02DE9FF5F994616468A46834627
:105070009000DDE90E87FFF7FFFB05001CD05420F0
:10508000FFF7FAFB040014D00020256384F85100D8
:105090004B46CDE90087CDE902403246514658469D
:1050A000FFF743FB2046FFF75DFA012004B0BDE89F
:1050B000F09F2846FFF7F0FD4FF0FF30F6E7F0B520
:1050C00085B00546DDE90B040A9EA8B1F4B154276A
:1050D00000972063022084F85100002004AFCDE93E
:1050E0000240CDE900672846FFF71FFB2046FFF787
:1050F00039FA049805B0F0BD502072B680F31188DB
:10510000BFF34F8FBFF36F8F62B6FEE7502072B6CA
:1051100080F31188BFF34F8FBFF36F8F62B6FEE746
:105120002DE9F04101261F4690460D4690B10446F8
:10513000FFF778FD0FB1E06C386094F85000022161
:1051400084F85010B8F1050F1BD2DFE808F0270DE6
:1051500010161400502072B680F31188BFF34F8FE1
:10516000BFF36F8F62B6FEE7E16C294301E0E16CAB
:10517000491CE16412E0022801D0E5640EE000263B
:1051800039E0E16C491C09D0502072B680F31188D7
:10519000BFF34F8FBFF36F8F62B6FEE701282AD1AE
:1051A000201DFFF7EFFC164D0121E06AAA6981403E
:1051B0001143A961134900EB800001EB8000211D20
:1051C000FFF724FDA06A48B1502072B680F3118821
:1051D000BFF34F8FBFF36F8F62B6FEE7E06A2968B7
:1051E000C96A884207D908494FF080500860BFF368
:1051F0004F8FBFF36F8FFFF739FD3046BDE8F08169
:105200002C000020DC07002004ED00E02DE9F04137
:105210002F4F0026B86B40B1386A401C3862786A5C
:1052200000B101263046BDE8F0817D696D1C7D61CD
:1052300015D17868006848B1502072B680F31188A3
:10524000BFF34F8FBFF36F8F62B6FEE77868B96820
:105250007960B860B86A401CB862FFF7E5FA386B4D
:10526000DFF87080854209D37868006880B178687B
:10527000C068C468606885420DD238633868C06A07
:1052800000EB800158F821000128C8D90126C6E7A3
:105290004FF0FF30F1E7201DFFF774FCA06A18B152
:1052A00004F11800FFF76EFCE06A0121BA69814041
:1052B0001143B96100EB800108EB8100211DFFF76C
:1052C000A5FCE06A3968C96A8842CDD30126CBE7DC
:1052D0002C000020DC0700202DE9F041C068C468E4
:1052E000ACB104F118000746FFF74CFC164DA86B53
:1052F0000126B0B115483946FFF788FCE06A2968F5
:10530000C96A88421ED901206E62BDE8F081502032
:1053100072B680F31188BFF34F8FBFF36F8F62B601
:10532000FEE7201DFFF72EFCE06AAA6906FA00F1ED
:105330001143A961054900EB8000B43901EB8000FD
:10534000211DD9E70020E0E72C0000209008002074
:105350002DE9F0472D4D00242746A86B38B1FFF703
:1053600061FCA86B401EA863A86B50B148E05020B8
:1053700072B680F31188BFF34F8FBFF36F8F62B6A1
:10538000FEE7286901262249D0B3A1F1B409884675
:10539000D8F80010E9B1D8F80C00C46804F118007E
:1053A000FFF7F0FB201DFFF7EDFBE06AAA6906FAA4
:1053B00000F11143A96100EB800109EB8100211D7F
:1053C000FFF724FCE06A2968C96A8842E0D36E626C
:1053D000DEE70CB1FFF728FA2C6A3CB1FFF716FFA5
:1053E00000B16E62641EF9D100202862686A38B18B
:1053F0000849012738070860BFF34F8FBFF36F8F4D
:10540000FFF734FC3846BDE8F08700002C00002090
:105410009008002004ED00E0000000000000000003
:1054200000000000000000003F40000000000000FD
:1054300000003000400030004000000009000BC0B8
:105440003D000BC03D00090018C024407FE0224011
:1054500031800000180024C01B000D803240018004
:1054600003801C4027401C80074000401000600063
:1054700000000000000000000000000000001F808D
:10548000204040200000402020401F8000000000FD
:10549000090006001F800600090000000400040047
:1054A0003F800400040000000010006000000000C5
:1054B00000000000040004000400040004000000D8
:1054C000000000400000000000000000002001C0BB
:1054D00006003800400000001F802040204020408F
:1054E0001F800000000010403FC00040000000008E
:1054F00018C0214022402440184000001080204065
:10550000244024401B80000002000D0011003FC019
:10551000014000003C8024402440244023800000BF
:105520001F802440244034400380000030002000CD
:1055300027C03800200000001B8024402440244065
:105540001B8000001C0022C0224022401F8000005F
:105550000000000008400000000000000000000003
:105560000460000000000000000004000A001100B8
:1055700020804040090009000900090009000000DE
:1055800000004040208011000A00040018002000A4
:1055900023402400180000001F802040274029409D
:1055A0001F400000004007C039000F0001C000404C
:1055B00020403FC0244024401B8000001F8020402A
:1055C000204020403080000020403FC0204020404C
:1055D0001F80000020403FC024402E4030C000000B
:1055E00020403FC024402E00300000000F001080FB
:1055F000204022403380020020403FC004000400CD
:105600003FC02040204020403FC0204020400000BC
:105610000060202020203FC02000200020403FC00C
:1056200024400B0030C0204020403FC020400040BC
:10563000004000C03FC03C0003C03C003FC0000031
:1056400020403FC00C4023003FC020001F8020406E
:10565000204020401F80000020403FC02440240004
:10566000180000001F802140214020E01FA0000002
:1056700020403FC02440260019C0004018C02440EC
:105680002440224031800000300020403FC02040B4
:105690003000000020003F80004000403F8020009C
:1056A00020003E0001C0070038002000380007C07D
:1056B0003C0007C038000000204039C0060039C057
:1056C000204000002000384007C038402000000083
:1056D000304021C02640384020C0000000000000BB
:1056E0007FE0402040200000000070000C0003809C
:1056F000004000000000402040207FE0000000004B
:1057000000002000400020000000000000100010F9
:105710000010001000100010000000004000000009
:1057200000000000000002800540054003C000406A
:1057300020003FC0044004400380000000000380BC
:105740000440044006400000000003800440244060
:105750003FC00040000003800540054003400000BA
:10576000000004401FC0244024402000000002E04C
:10577000055005500650042020403FC0044004005E
:1057800003C000400000044027C0004000000000AB
:1057900000100010041027E00000000020403FC06F
:1057A0000140070004C00440204020403FC00040AA
:1057B0000040000007C0040007C0040003C0000050
:1057C000044007C00440040003C000400000038000
:1057D0000440044003800000041007F0045004401B
:1057E00003800000000003800440045007F0001014
:1057F000044007C00240040004000000000006400E
:105800000540054004C00000000004001F80044063
:1058100000400000040007800040044007C0004032
:105820000400070004C0018006000400060001C057
:10583000070001C006000000044006C0010006C0C9
:10584000044000000410071004E00180060004007A
:105850000000044005C006400440000000000000B5
:1058600004007BE040200000000000000000FFF08A
:1058700000000000000040207BE004000000000069
:105880004000800040002000200040000000000098
:105890000000000000000000000000000000000008
:1058A00000001FCC000C00000000000000000800F9
:1058B000300060000800300060000000022003FC9F
:1058C0001E20022003FC1E200220000000000E18F3
:1058D00011043FFF10840C78000000000F001084BA
:1058E0000F3800C0077818840078000000780F8413
:1058F00010C411240E9800E4008400080800680019
:105900007000000000000000000000000000000027
:10591000000007E0181820044002000000004002C8
:105920002004181807E000000000000002400240B8
:1059300001800FF0018002400240000000800080E2
:1059400000800FF800800080008000000001000D42
:10595000000E0000000000000000000000000080B9
:105960000080008000800080008000800000000C2B
:10597000000C000000000000000000000000000615
:10598000001800600180060018002000000007F0E9
:10599000080810041004080807F0000000000804BC
:1059A00008041FFC000400040000000000000E0CAE
:1059B00010141024104411840E0C000000000C1868
:1059C00010041104110412880C700000000000E0A3
:1059D0000320042408241FFC0024000000001F985A
:1059E000108411041104108810700000000007F0EA
:1059F00008881104110418880070000000001C00C1
:105A0000100010FC13001C001000000000000E38F5
:105A100011441084108411440E3800000000070067
:105A2000088C10441044088807F0000000000000B3
:105A30000000030C030C0000000000000000000048
:105A400000010106000000000000000000000080CE
:105A50000140022004100808100400000220022067
:105A60000220022002200220022000000000100478
:105A700008080410022001400080000000000E0011
:105A80001200100C106C10800F00000003E00C18C6
:105A900013E4142417C4082807D000000004003CB5
:105AA00003C41C40074000E4001C000410041FFC59
:105AB0001104110411040E880070000003E00C189A
:105AC00010041004100410081C10000010041FFC27
:105AD000100410041004080807F0000010041FFC54
